:020000040800F2
:10000000381B0020D5000008ED2400084D1700081B
:1000100000000000000000000000000000000000E0
:10002000000000000000000000000000C92D0008D2
:100030000000000000000000EF240008CD2D0008A3
:10004000E7000008E7000008E7000008E7000008F4
:10005000E7000008E7000008E7000008E7000008E4
:10006000E7000008E7000008E700000800000000C3
:10007000E7000008E7000008E7000008E7000008C4
:1000800000000000E700000800000000112E00083A
:1000900000000000E7000008E7000008E700000893
:1000A000E7000008E7000008E7000008E700000894
:1000B000E7000008E7000008E7000008E700000884
:1000C0000348854600F030FA004800470937000829
:1000D000381B00200448804704480047FEE7FEE73D
:1000E000FEE7FEE7FEE7FEE7E12D0008C10000089D
:1000F00030B50B46014600202022012409E00D46C0
:10010000D5409D4205D31D469540491B2546954047
:1001100040191546521E002DF1DC30BD70B500248B
:100120002546002801DA01244042002901DA012590
:100130004942FFF7DDFFAC4200D04042002C00D026
:10014000494270BD03460B439B0703D009E008C931
:10015000121F08C0042AFAD203E00B780370401C77
:10016000491C521EF9D27047D2B201E00270401C05
:10017000491EFBD270470022F6E710B513460A4627
:1001800004461946FFF7F0FF204610BDF0B51FB436
:1001900088B00B990998002448400999C00F49007C
:1001A00049080991C0070B990090490049080B9133
:1001B00009990898A64608431CD00B990A98084349
:1001C00018D0099801244000420D4800410D0998BB
:1001D00024050003000B204309900B980003000B3B
:1001E00020430B9050181C494018002201901446DF
:1001F000104605E0002001460DB0F0BD032801DAED
:10020000034600E003239C46C11A0AAE0AE05F00E1
:1002100008ADED5B4F00F75B7D430027AA187C41DA
:10022000491C5B1E6145F2DD410004AB5A522104BA
:10023000120C0A43240C401C0828DFDB01980290B2
:100240000099704601910090059B049A07990698C1
:1002500000F018F9D0E700000DFCFFFFF0B50C46E8
:100260005C4085B0E40FE40703944C00002664086A
:1002700059009446490802460296224321D062461C
:100280000A431ED06200570D4A000E032303550D8A
:10029000012402462C492405781B1B0B360B401801
:1002A00023432643614600901C46501AB44103D3B1
:1002B0000098401C009002E0921800985B410028D2
:1002C00003DA0020014605B0F0BD00200121090538
:1002D0000746864611E064461D46141BB54106D309
:1002E0006546521BB341744607430C43A646CD07EF
:1002F00040084908284392185B4105460D43EAD15E
:100300001046184313D060461946504071400843C8
:1003100006D06046101AB34106D20122002306E03F
:1003200000220123DB0702E00122D2435310009890
:1003300074460105381C6141029C039D0019694106
:1003400000F093F8BFE70000FD0300000EB5C217F0
:10035000C10F5040CA0740180021054B029301927B
:1003600000910A460B4600F08DF803B000BD000076
:10037000330400000EB505490291002100910A46A0
:100380000B46019100F07EF803B000BD330400007D
:1003900070B5CD0F4A0009030123090B1B05194352
:1003A0000B4BED070024520D9A4201DA002070BD7C
:1003B000074B34339A4203DC9A1A00F045F802E006
:1003C0000449511888402C43F1D0404270BD0000D0
:1003D000FF030000CDFBFFFF10B5002904DB012463
:1003E000E40740428C412146002B04DB1C460123DC
:1003F000DB075242A3418B4200D1824210BD000074
:1004000010B5002904DB0124E40740428C41214659
:10041000002B04DB1C460123DB075242A341994217
:1004200000D1904210BD000010B5202A04DB014627
:10043000203A9140002010BD914020239C1A034691
:10044000E3401943904010BD10B5202A04DB084654
:10045000203AD040002110BD0B46D340D04020248C
:10046000A21A91400843194610BD10B5002B08DAB6
:100470000024401C614192185B411A4301D140089D
:10048000400010BDF0B51FB482B005460C0003D08B
:10049000084602F03EFD02E002F03BFD203002463D
:1004A000009021462846FFF7BFFF049B059A0446AB
:1004B0000F4618431143084314D0184610431BD06D
:1004C000009840210A1A18460599FFF7BDFF054616
:1004D0000E46009A05990498FFF7A6FF084305D039
:1004E000012004E02046394607B0F0BD0020C117C6
:1004F00005430E432C43374300990E986305401A79
:100500007905E40A00220C43FD0A0A3002D50020D6
:100510000146E9E70105101969410C9C0D9D001980
:100520006941FFF7A2FFDFE7064C0125064E05E013
:10053000E36807CC2B430C3C98471034B442F7D304
:10054000FFF7C2FD0C6000082C600008F0B585B014
:1005500004460B46002A02D1002005B0F0BD002061
:10056000508010809080D080204600F057F80028FE
:1005700004D0184600F052F8002801D10020ECE722
:100580000020205E0021595E884202DD0020205EAE
:1005900001E00020185E05460020205EA188471873
:1005A0000020185E9988401804900498874201DA68
:1005B000384600E0049803900220205E0221595E34
:1005C000884202DD0220205E01E00220185E06461D
:1005D0000220205EE188401802900220185ED9882F
:1005E0004118019101990298884201DA029800E0CD
:1005F000019800900398854202DA0098864201DB58
:100600000020AAE728B2108030B250800398401B27
:1006100090800098801BD08001209EE70146002931
:1006200007D08888002804DDC888002801DD012063
:1006300070470020FCE7F8B504460D4616461F46F5
:10064000002C00D1F8BDA188284603F06BFF301ABA
:1006500000B22080E188284603F086FF381A00B2F5
:10066000608000BFEEE7000000B591B001200003FC
:1006700001F0D8FB0520000701F0C6FE05200007A9
:1006800001F0C2FE0520000701F0BEFE05200007B4
:1006900001F0BAFE012001F0C5FB18210BA8FFF7FD
:1006A0006AFD0BA801F0CAFCFF2001300B9001206D
:1006B0000C9002200D9000200E900F9010900BA92E
:1006C0000520000701F028FCFF210131052000076B
:1006D00001F0B0FC012040020B9002200C900D9024
:1006E00000200E9002200F900A2010900BA9C00647
:1006F00001F012FC0120C0020B9002200C900D9022
:1007000000200E900F9010900BA90520000701F01B
:1007100003FC012000030B9002200C900D900020A0
:100720000E900F9010900BA90520000701F0F4FB2C
:10073000282101A8FFF71FFD00200190FF200530B0
:100740000290002003900490059001204002069042
:10075000082007900020089009900A9001A90648F7
:1007600001F0CAFC00BF0448006840210843024968
:10077000086000BF11B000BD003001401CB5002171
:1007800001910091694601A800F04AF86846007995
:10079000682806D1684600880349884201D10120B3
:1007A0001CBD0020FCE700001440000070B50446AA
:1007B0000E461546002E05D0002D03D00120000561
:1007C000844200D370BD01200005001BA84202D264
:1007D00001200005051BFF2101310520000701F064
:1007E00023FC032000F0BEF82102080E00F0BAF846
:1007F0002104080E00F0B6F8E0B200F0B3F80023D0
:1008000004E0FF2000F0AEF8F0545B1CAB42F8D3DC
:10081000FF2101310520000701F00CFC00BFD1E7EA
:10082000F8B504460D46FF2101310520000701F00F
:10083000FBFB9F2000F096F8FF2000F093F807469E
:10084000002C00D02770FF2000F08CF806463602FE
:10085000FF2000F087F80643002D00D02E80FF21F6
:1008600001310520000701F0E5FBF8BD10B5044695
:10087000204600F06DFA10BD10B50446002C00D1E2
:1008800010BD124801F096FC104801F08FFC0020CA
:100890000E49486200BF00BF0846C46200BF01F0B5
:1008A00085FC00BF0948006801210843074908602A
:1008B00000BF00BF00BF05480069C007C00F01218D
:1008C000484048400028F5D000BFD9E70044014027
:1008D00000B587B0142102A8FFF74DFC01204004A9
:1008E000184909680143174A116011460968014017
:1008F000019100BF00BF002005900390472168468A
:1009000001810020C043049000216846017602A9BD
:100910000D4801F055FC002801D000BFFEE70A4851
:1009200001F044FC00BF0848C068012108430649A3
:10093000C86000BF084601F03DFC034801F036FCEA
:1009400007B000BD401002400044014010B504460D
:1009500003E07D20C000FFF78FFF2046641E0028C3
:10096000F7D110BD014600BF00BF114880680222C8
:10097000104040080028F7D00D48017300BF00BFA9
:1009800000BF0B488068C007C00F01225040504094
:100990000028F5D000BF00BF0548806880221040C5
:1009A000C0090028F7D100BF0148C068C0B2704735
:1009B0000030014070B504460D46204603F044FD6A
:1009C000002800D170BDA688E1884E43002003E0D6
:1009D0004200A1688D52401CB042F9D300BFF1E73C
:1009E000FFB583B01C46039803F02EFD002804D009
:1009F000002C02D02448844201DD07B0F0BD274618
:100A0000002002903AE000E07F1E002F14DD3846FF
:100A1000394602F095FA05460E460298014602F064
:100A20008FFA2A46354616184D412046214602F0D7
:100A30009FFA301A8D41E7DA00251AE0012D03D123
:100A40000298002800D112E0002D03D102990598E8
:100A5000401802E002990598401A0646009604984C
:100A6000C319C21B0C99039803F09DFC00BF681CBE
:100A7000C5B2022DE2DB0298401C02900298A0420F
:100A8000C1DB00BFB9E70000FF7F0000F0B589B00F
:100A90000446002C05D06168206803F023F9002883
:100AA00001D109B0F0BD07AA08AB20461A30217E5B
:100AB0000393049201910290A07B0A230090E35ECD
:100AC0000822A25E217B606803F0E6FD002800D1C9
:100AD000E7E705AB20461A30217E22461032049308
:100AE000019202910390607B00906E461C22B25EE0
:100AF0002021715E2368606803F058FD002800D152
:100B0000CFE7606800688002800F002818D1206B52
:100B100000F01EF9064605A93420005D0022D243EC
:100B20000296019204910390002000906F461C23CE
:100B3000FB5E2022BA5E6168206802F067FEB0E7C3
:100B4000656A002D14D1606800688002800F01285A
:100B500009D1236BE26A616809688901480F10496D
:100B600000F096F903E00E49606800F0D9FC0C4DE6
:100B7000206B00F0EDF8064605AA3420005DA16A5E
:100B8000029600950492019103906F461C23FB5E30
:100B90002022BA5E6168206802F038FE00BF80E75C
:100BA00040000020FFB587B006460F461C46304681
:100BB00003F04AFC002804D0002C02D01098002832
:100BC00001D10BB0F0BD684687820999C1820483C8
:100BD00069461098488303AA314605A8FFF7B6FC7A
:100BE000002800D1EDE7002515E068460E21415EA2
:100BF000481902900298009068460C21415E008AD4
:100C00000818431E68460C22825E3046119903F094
:100C1000CAFB681C85B26846408AA842E5DC00BF72
:100C2000CFE7FFB585B005460C461646002D01D12D
:100C300009B0F0BD002028606860A860002C06D0D4
:100C4000002E04D02046FFF7E9FC002801D1002047
:100C5000EEE70496049803F082FB0746049EB81B57
:100C6000039008990398884201D90020E0E703998E
:100C70000898401A0290A088E188484301900298A1
:100C800041080198814201D20020D1E70822214683
:100C90002846FFF757FAAF600120C9E710B50028D2
:100CA00000D110BD01608280C3600024846000BF59
:100CB000F7E7FFB589B014461D46002D02D109980B
:100CC0000DB0F0BDAC4201DB0A98F9E7002C01D170
:100CD0000998F5E706AB07AA08A9099800F049F8B2
:100CE00003AB04AA05A90A9800F043F82646281B7E
:100CF00087B269460A7D3446624308A90978794378
:100D000050182946FFF70AFAC1B2029169460A7CD7
:100D10006243097F794350182946FFF7FFF9C1B2B2
:100D200001916946097B61436A46127E7A438818BD
:100D30002946FFF7F3F9C2B2009202990A04019919
:100D400009021143009A1143084600F001F8B7E781
:100D500030B501460802020E0804030ECCB2F8209A
:100D600010400002FC251D40ED002843E5102843FB
:100D700030BDFFB5002904D0002A02D0039E002E0A
:100D800000D1FFBD0604F50E4605B30EC406E40E01
:100D9000EE00AF103E430E709E001F113E431670D2
:100DA000E600A7103E43039F3E7000BFE9E7000046
:100DB000F0B58DB007460E4614461D460022134678
:100DC00020462946FFF708FB02D838460DB0F0BD93
:100DD00000222E4B20462946FFF712FB01D8304651
:100DE000F4E73802000E0C903804000E0B90F8B2B5
:100DF0000A903002010E09913004010E0891F1B2FF
:100E000007910C9A0999881AFFF7A0FA22462B46F7
:100E100001910090FFF7BAF903910290FFF7B8FA39
:100E200001460C980818C0B206900B9A0899881AC7
:100E3000FFF78CFA22462B4601910090FFF7A6F9A6
:100E400003910290FFF7A4FA01460B980818C0B26C
:100E500005900A9A0799881AFFF778FA22462B46D6
:100E600001910090FFF792F903910290FFF790FA39
:100E700001460A980818C1B2049106980104059821
:100E80000002084304990843A0E700000000F03F77
:100E9000FFB589B004460E46002E01D10DB0F0BD5D
:100EA000012C00DA0124052C00DD05240120A040DE
:100EB00087B200251DE0781EFFF748FA03910290E3
:100EC0002846FFF757FA01910090039B029AFFF71B
:100ED000C5F907910690079B069A0B990C98FFF7A6
:100EE00067FF05900598FFF733FF69007052681C93
:100EF00085B2BD42DFDB00BFD0E7FEB504460E463B
:100F0000002E00D1FEBD012C00DA0124052C00DDED
:100F100005240120A04087B2781E80B202900025EF
:100F200015E02902481B0299FFF7F8F8C0B20190BA
:100F300001980004019909020843019908430090AF
:100F40000098FFF705FF69007052681C85B2BD422A
:100F5000E7DB00BFD6E7000038B5054603F0D0FA5E
:100F6000002800D138BD07480068841DE088009043
:100F7000A3880222A25E0021615E284600F032FBB7
:100F800000BFEFE718000020FFB587B0109C03F00A
:100F9000B7FA002802D00A98002801D10BB0F0BDA2
:100FA000002C01DD012000E00020049004980028BE
:100FB0001CD02046E10F09184A100A9951180691D1
:100FC0002146E20F521853100A9A934205DAE20FB3
:100FD000121853100A9AD21A00E000220592059ABC
:100FE0000698824206D30020049003E00A980690F7
:100FF000002005904A490698884200D9CEE7069F0E
:10100000059803900020029082E000E07F1E002FF0
:1010100014DD3846394601F093FF05460E46029826
:10102000014601F08DFF2A46354616184D410698B7
:10103000014601F09DFF301A8D41E7DA0020019052
:101040000498002826D005990298884222DA02E006
:101050000398401E03900398002814DD039801466E
:1010600001F06EFF05460E460298014601F068FF4A
:101070002A46354616184D410598014601F078FF7D
:10108000301A8D41E4DA0398002801DD012000E0E8
:1010900000200190002536E0012D03D102980028A0
:1010A00000D12EE0002D03D102990998401802E0EA
:1010B00002990998401A06460498002819D0019808
:1010C000002816D0039887421ADD039B0898C01A9F
:1010D000421E0898C11B3346079803F0CBF90898C5
:1010E000C219039BC018411C3346079803F0C2F98C
:1010F00006E00898C219C11B3346079803F0BAF9F5
:1011000000BF681CC5B2022DC6DB0298401C0290CD
:1011100006990298884200DA77E700BF3EE70000B0
:10112000FF7F0000F0B585B004460D46164603F07B
:10113000E7F9002801D105B0F0BD002C0ED02088C1
:101140008005800D002809D020680003800D00284C
:1011500004D020688002800F032800D1EBE72068CC
:101160004002C00F002805D120684002C00F0028AF
:1011700000D0E0E720684002C00F002803D060687C
:10118000002800D1D7E720688002800F012805D110
:1011900020684001C00F002800D0CCE72068800202
:1011A000800F00280AD020688001400F012804DB4E
:1011B00020688001400F052800DDBCE71C4800685E
:1011C000871D68460581468120888105890D68460E
:1011D000818120680003810D6846C1816A463946D5
:1011E00002A8FFF7B3F9002800D1A4E72068800225
:1011F000800F002804D0012809D0022815D10DE065
:101200006B4632462946204603F008F80DE06B464F
:1012100032462946204602F0F7FD06E06B4632468C
:101220002946204602F0DEFF00BF00BF00BF82E774
:1012300018000020F0B589B0044603F061F90028D9
:1012400001D109B0F0BD002C02D02068002800D1E7
:10125000F7E7256828888005800D002809D02868D0
:101260000003800D002804D028688002800F032826
:1012700000D1E6E728684002C00F002805D12868A1
:101280004002C00F002800D0DBE728684002C00FF2
:10129000002803D06868002800D1D2E728688002BF
:1012A000800F012805D128684001C00F002800D018
:1012B000C7E728688002800F00280AD028688001CC
:1012C000400F012804DB28688001400F052800DD5D
:1012D000B7E707AA08AB20461630217D0393049296
:1012E00001910290A07A06230090E35E0422A25EA0
:1012F000217A284603F0D0F9002800D1A1E73D4823
:101300000068861D05AA20461630217D23460C3331
:101310000193049202910390607A334600906846EC
:101320001C22825E2021415E284603F03FF90028FE
:1013300000D186E7206800688002800F002804D072
:1013400001280CD0022852D12FE005AB6F461C2299
:10135000BA5E2021795E206802F060FF47E0206AD3
:10136000002809D1E36AA26A216809688901480F47
:1013700020492831FFF78CFDE06AFFF7E9FC0246BF
:101380000490616A206A002801D0206A01E01948AF
:1013900028306B4607C305AB6F461C22BA5E20217E
:1013A000795E206802F04EFD21E0206A002804D119
:1013B00010492831206800F0B3F8E06AFFF7C8FC54
:1013C00001460490626A206A002801D0206A01E088
:1013D0000848283001920291009005AB6F461C220C
:1013E000BA5E2021795E206802F02CFD00BF00BFAC
:1013F00000BF26E718000020FFB587B00D4616464F
:101400001C46109F03F07CF8002803D0002C01D06C
:10141000002F01D10BB0F0BD0F480068801D069071
:101420006846058246828482C78202AA04A8069979
:10143000FFF78CF8002800D1ECE76846C0890090DF
:10144000684683890A22825E0821415E01910798DD
:1014500000F0C8F800BFDDE718000020FFB581B03C
:1014600004460F461D460A9E03F04AF8002805D0A0
:10147000002C03D0002D01D0002E01D105B0F0BD0D
:101480002B46009639462046039A00F0F6F800BF36
:10149000F4E700001CB51D4903C90191009068469E
:1014A00000F080F8FF2000F00DF902F00FF9FFF7CF
:1014B00065F9174908700020164908701649087028
:1014C0001448007801F012FE00BF00F0B9FF02F0EE
:1014D00021F9114800780028F7D0E121C9000F4810
:1014E000006801F0BBFC0028EFD001F0D1FC0B49F3
:1014F00008600A2107480078401CFEF7F9FD0548FE
:101500000170007801F0F2FDDFE70000D447000829
:101510000600002004000020050000200800002034
:10152000FEB504460D4602F0EBFF002808D0002D62
:1015300006D0002C04D020688002800F032800D140
:10154000FEBD20688001410F0120884080B20290DA
:1015500002984000019021888905890D2268920136
:10156000520F5143C81DC117490F0918CE102068EA
:101570000003870D774320684002C00F002808D081
:101580006068C01900902846019A0099FEF7DAFDBC
:1015900005E06168C8192946019A00F032F800BFD9
:1015A000CEE7000010B5044668210C48FEF7E3FDC5
:1015B0000E210B48FEF7DFFD09480849086008685E
:1015C00000F06AF80549086802F0D0FE002C03D04C
:1015D0006168206800F08EF810BD0000180000203F
:1015E00080000020FFB581B004460D4616460A9FD4
:1015F0000097324629462046049B00F0E7FF05B0DD
:10160000F0BD70B504460D461646324629462046C2
:10161000FFF7CCF870BDFFB5A3B01D46002627E04C
:10162000002421E0281B402801D2281B00E0402094
:1016300087B2304668430019410002917A00239B2B
:101640000299581803A9FFF7B1F8012000902598D6
:10165000801902B22498001901B23B4603A801F098
:1016600051F82046403084B2AC42DBDB701C86B2BD
:101670002C988642D4DB27B0F0BDFFB581B004467C
:101680000D4616460A9F0097324629462046049B7F
:1016900001F038F805B0F0BD10B50446002001F0A7
:1016A000D1F8FEF7E1FFAC202080FF2041306080C0
:1016B00000206071207110BD10B50446204601F075
:1016C00095FA10BD10B5044609480068002800D1FD
:1016D00010BD074800684079A04200D1F8E70448EF
:1016E000006844712046FFF7E7FF00BFF0E7000005
:1016F00018000020F8B505460C46002D01D0022C3C
:1017000006D20023022219460F48FFF7C7FAF8BD98
:101710000095009802F023FE0646009D771BA74225
:1017200002D8E01B022806D20023022219460648EE
:10173000FFF7B4FAEBE7E01B430802223146024808
:10174000FFF7ACFA00BFE2E71C00002000BFFEE795
:10175000002005E000214201034B9954411CC8B20E
:101760000328F7DB7047000090140020012009498E
:10177000087000200BE007494978814200D104E05D
:1017800000214201044B995400BF411CC8B20328F8
:10179000F1DB7047F01400209014002010B50446CF
:1017A00017480079002801D1012010BD1448C078E5
:1017B000410041181248401D08188078A070104858
:1017C000C078410041180E48401D405C20700C4814
:1017D000C078410041180A48401D081840786070E0
:1017E00007480079401E06490871C978481C142131
:1017F000FEF794FCC8B20249C8700020D5E700008B
:10180000F014002000200649087000BF05E0002108
:101810004201044B9954411CC8B20328F7DB7047BE
:10182000F014002090140020024948700221014A5F
:1018300011707047F014002070B505460E460E4832
:101840000079002800D170BD002000F023FA0024A8
:1018500009E0610061188819FFF7A0FF002800D097
:1018600003E0601CC4B2AC42F3DB00BF012000F017
:1018700011FA2046E7E70000F01400200020034999
:1018800088700871C870087070470000F01400205C
:10189000F8B500260327A6480078002813D00128B1
:1018A00012D0022814D1A24846784078401CC7B212
:1018B0009F49487800F0B2F99D49497849019D4A0D
:1018C0008918487004E000BF9A4800F0D3F900BFBF
:1018D00000BF354628E16801964944182078030086
:1018E00001F05EFB05040A1478F70900607800280F
:1018F00001D10120207014E16078002800D110E1AE
:10190000022020700020606020720AE160681430BC
:1019100060606078002814D101202070207A0028AF
:1019200000D1FEE0207A01280BDD81484078A842F2
:1019300007D1227A0721284600F0FEF8FFF762FF60
:10194000EFE06068218A884243D903202070207A22
:10195000401C2072207A012805DD227A05212846C4
:1019600000F0EAF830E072480078012827D1002022
:101970006F49497849016F4A50546D484078400199
:1019800011464018007A01280BDD69494978490160
:101990001346C9180A7A66494878072100F0CCF83E
:1019A0000DE063484078400162494018007A012800
:1019B00005D15F4948780022012100F0BDF80022DE
:1019C0001146284600F0B8F82846FFF72DFF2F46AD
:1019D000A7E0A6E06068143060606078002839D124
:1019E000A07C00280BD06068A18A884207D9002219
:1019F0000321284600F0A0F8FFF704FF91E0207AC9
:101A0000012808D1A07D002813D1002201212846F9
:101A100000F092F80DE0227A0621284600F08CF8BA
:101A2000207AA17E884204DB227A0721284600F032
:101A300083F8A07D00280AD0207AA17E884206DAA9
:101A40000020E06004202070FFF790FE01E0FFF727
:101A5000D9FE66E0A07C00281CD0A08A616888427C
:101A600018D86168A08A1430814213D2207A0128E4
:101A700006DD207A401E82B20721284600F05CF87D
:101A800000220221284600F057F800212848403063
:101A900041801CE0E07E002819D06168A08A1430E3
:101AA000814214D3224840304088143081B220480B
:101AB000403041804088A18B884208DD00211C48CD
:101AC0004030418000220421284600F035F828E00B
:101AD000FFE7E0681430E0606078002808D000205C
:101AE00060602846FFF7A0FE2F460220207018E015
:101AF000E068218B884213D9207A012805DD227AFB
:101B00000721284600F018F807E0207A012804D1C0
:101B100000220121284600F00FF8FFF773FE00E0D5
:101B200000BF00BF681CC5B2BD4200DAD3E6F8BDF5
:101B3000F01400209014002070B504460D4616469F
:101B400015480079142801DD012070BD1248807805
:101B5000410041181048401D081845700E48807813
:101B6000410041180C48401D4454401F80784200F9
:101B700082180948401D1018867007480079401CDB
:101B8000054908718978481C1421FEF7C7FAC8B2C4
:101B9000014988700020D8E7F01400201FB5FFF736
:101BA0006DFEFFF7D5FD684600F00AF9002405E058
:101BB0006946204600F0D0F8601CC4B2032CF7DB65
:101BC00000F00AF800F080F800F020F90020014948
:101BD00008701FBD0C00002000B587B00E4800F053
:101BE00013FC0D4800F010FC01A800F027FA0820B3
:101BF0000190002002900120059001A90520000716
:101C000000F08AF91020019001A90520000700F0DA
:101C100083F907B000BD00000014005010B5044661
:101C2000002C04D0012C0DD0022C21D115E0202154
:101C30000520000700F0EDF9002801D1012010BDBA
:101C40000020FCE708210520000700F0E2F9002849
:101C500001D10120F3E70020F1E710210520000762
:101C600000F0D7F9002801D10120E8E70020E6E7DD
:101C70000020E4E770B50546002407E02046FFF7A2
:101C8000CDFF610149194870601CC4B2032CF5DB1B
:101C900070BD000010B50446002C0ED013200028A3
:101CA00009DB00BF00BFC206D20E01219140054AE8
:101CB000116000BF00BF00BF02E0132001F07EF9F9
:101CC00010BD000000E100E000B587B0142102A8BB
:101CD000FEF751FA0120C0031C49096801431B4A61
:101CE0001160114609680140019100BF00BF00204A
:101CF00005900390164968460181C7200490002191
:101D00006846017602A9134800F05AFA00BF012084
:101D1000C0431049086100BF00BF0846C0680121E8
:101D200008430C49C86000BF00BF08460068012195
:101D300008430849086000BF132001F03FF9012162
:101D4000132001F04BF907B000BD00004010024025
:101D50001F1C00000020004010B5032800DB10BD50
:101D60000A884301154C1B191A828A7843011B19F2
:101D70009A748A8843011B199A828A7943011B1934
:101D80009A758A7A022A04DA022243011B199A768A
:101D900004E08A7A4301094C1B199A760A894301A7
:101DA000064C1B191A83CA7A43011B19DA768A89F1
:101DB00043011B199A8300BFD1E700009014002053
:101DC0001E21018001218170E121C9008180012152
:101DD000817103218172FF212D3101810021C172A6
:101DE000C82181817047000010B50020FFF752FF25
:101DF000FFF7AEFCFFF742FD0120FFF74BFF01208C
:101E00000149087010BD00000C00002010B5002032
:101E1000FFF740FFFFF732FD00200149087010BDB9
:101E20000C00002008B5054909680143034A116008
:101E3000114609680140009100BF08BD40100240F2
:101E400008B5054909680143034A1160114609684C
:101E50000140009100BF08BD4010024010B54A1E6D
:101E6000044B9A5C825853085B004A1E014CA25CEA
:101E7000835010BDE45F000810B54A1E044B9A5C05
:101E8000825801231A434B1E014CE35CC25010BD23
:101E9000E45F000870B50346D56894682C43156963
:101EA0002C4355692C4395692C43D5692C43204616
:101EB000556A28434C1E134D2C5D1C59124D2C4065
:101EC00004434D1E0F4E755D5C5100BF50684C1EA3
:101ED00035462C5DE418E06000BF10684C1E2C5D98
:101EE000E418A06000BF106A4C1E2C5DE418646802
:101EF000240C240404434D1E755DED186C6000BF76
:101F0000002070BD784700080F80FFFF0146086879
:101F10000222104040087047F0B502460B460026EA
:101F200061E00124B4401968214000295AD0586862
:101F300014680D464D436F00ED19AC430D464D43FB
:101F400045432C43146000BF5868012802D05868EC
:101F500002280DD1986894680D464D436F00ED1925
:101F6000AC430D464D4345432C43946000BF00BF36
:101F70001869D4680D464D436F00ED19AC430D460A
:101F80004D4345432C43D46000BF5868022829D1F3
:101F9000FF2911D85869146A0D464D434D434D43EE
:101FA0002F017D1BAC430D464D434D434D434543EF
:101FB0002C43146200BF15E05F69080A40430C0A15
:101FC00060430C0A60430401241A506AA0430C0ABF
:101FD00064430D0A6C430D0A6C437C4320435062FA
:101FE00000BF00BF761C1868F040002899D15868DF
:101FF000012802D05868022809D1DC6818685568A1
:102000008543074667433D43556000BF00BF00203E
:10201000F0BD024610690840884201D10120704796
:102020000020FCE7816270478162704781627047DF
:102030008161704781617047816170470449016027
:102040000321416000218160C160016141617047ED
:10205000FFFF000008B50549496B0143034A51637E
:102060001146496B0140009100BF08BD00100240BD
:1020700070B504467D25ED0029462046FEF738F868
:10208000401E04494861002088610520086100BFA6
:1020900070BD000000E000E0024880683821084080
:1020A0007047000000100240034800680121490603
:1020B0000840400E70470000001002400349896844
:1020C000C908C9000143014A9160704700100240ED
:1020D00001684022914301607047416802229143A8
:1020E00041607047016840221143016070474168B8
:1020F000022211434160704730B50246012300BF00
:102100001068402420408009002826D14C680868C7
:1021100020438C682043CC6820430C6920434C69E1
:1021200020438C692043CC6920430C6A2043146807
:102130000D4D2C402043106050680424A0434C698E
:10214000240C204350605C03086AA04204D1486A12
:1021500084B2146100BF00BF0023D0690124E402EF
:10216000A043D061184630BD4000FFFF014688689B
:1021700080221040C009704702680123DB029A43A5
:102180000A43026070470021016041608160C160C4
:10219000016141618161C161016207214162704752
:1021A0000149086070470000000000200121C94378
:1021B00001617047016849084900016070470000EB
:1021C00010B5024613682048824203D001208007E0
:1021D000824205D118467024A0434C682043034630
:1021E000194882420CD001208007824208D017484B
:1021F000824205D01648824202D01648824206D159
:10220000184603242402A043CC68204303461360ED
:102210008868D06200BF0888906200BF0A48824286
:1022200005D00B48824202D00A48824203D1087C82
:10223000106300BF00BF00BF5069012420435061FC
:1022400000BF002010BD0000002C01400020004015
:10225000004401400048014008B50120FFF7F0FDAF
:10226000012000074A49C96B0143494AD16311461D
:10227000C96B0140009100BF00BF00BF104600685D
:10228000911508431146086000BF4249098AC804F5
:10229000C00C0122D20310433D494968090C0904CE
:1022A00001433B4A516000BF00BF00BF384800688F
:1022B000012189020840800A0028F6D00020FFF79B
:1022C000FDFE00BFFFF7E8FE0028FBD100BF30484D
:1022D00000680121090688432D49086000BF00BF3E
:1022E000FFF7E2FE0028FBD100BF2949C968490871
:1022F00049000143264AD16000BF04201146C96845
:102300000C2291430143224AD16000BF00BF104616
:1023100000680121090608431146086000BF00BF9C
:10232000FFF7C2FE0128FBD102201B49096889087A
:1023300089000143184A116000BF00BF00BF164862
:1023400000688007800F0228F8D1002010498968B2
:102350000F221202914301430D4A916000BF0220F7
:10236000FFF7ACFE00BFFFF797FE1028FBD100205F
:10237000074989680722120391430143044A916087
:1023800000BF0648FFF774FE0448FFF709FF08BDC9
:1023900000100240000FFF1F0020024000A24A046C
:1023A00000BF1748008EC0B2164908601448006B81
:1023B000C001C00D48601248008E0004000E086184
:1023C0000F48808EC0B288600D48406B4001400DC0
:1023D000C8600B48806BC003C00B48610848C06BE5
:1023E000C003C00B886106484030008880B2C861D5
:1023F0000348403000680001000D086200BF7047CC
:10240000000FFF1F0021024010B504460520000701
:10241000844203D10120FFF71DFE0CE006488442F0
:1024200003D10220FFF716FE05E00448844202D1E2
:102430002020FFF70FFE10BD0004005000140050D4
:1024400000BF02480249086000BF7047AAAA000006
:102450000030004000BF1948006A012108431749B5
:10246000086200BF00BF00BF1448006A0221084094
:1024700040080028F7D000BF11481249086000BF8B
:1024800000BF1148086000BF0520486000BF40023F
:10249000886000BF00BF00BF0A48C0688007800F87
:1024A000002801D1012000E000200028F3D000BF67
:1024B00006480449086000BF704700004010024011
:1024C000CCCC00000030004055550000AAAA000006
:1024D00010B5FFF7C1FEFFF763FFFFF7BBFF00205A
:1024E0000149087010BD00001400002070477047BB
:1024F00000B587B02B48FFF787FF2B48FFF784FF15
:1025000005200007FFF780FF2648FFF77DFF2648DC
:10251000FFF77AFF2448FFF777FF01A8FFF78EFD4A
:10252000082001900120029000200390049001A94E
:102530001C48FFF7F1FC012000F038F801A8FFF774
:102540007DFD0820019001200290002003900120D1
:1025500004900020059001A91348FFF7DDFC01A8B5
:10256000FFF76CFD202001900020029001200590D3
:1025700001A905200007FFF7CFFC0420019001A965
:102580000848FFF7C9FC0220019001A90648FFF79F
:10259000C3FC0120019001A90348FFF7BDFC07B06F
:1025A00000BD0000000400500014005010B50446A7
:1025B000012C04D108210448FFF73EFD03E0082167
:1025C0000148FFF733FD10BD00040050FFB58FB088
:1025D0000D4616461F4618983018401E83B2E8195B
:1025E000401E82B2B1B2A8B20B9000F00FFB41487E
:1025F000FFF76EFD0121C9023E48FFF7BDFD3D48D2
:10260000FFF770FD40213C48FFF712FD10213A48CA
:10261000FFF708FD189878430446002C01D113B049
:10262000F0BD0F980C9035496118481E3349FDF7ED
:102630005FFDC0B20E9000200B9047E02F4884420F
:1026400001D90D9000E00D940D98241A0CA8029069
:102650000020069001208002089026480C3001904E
:1026600000200590FF2001300790102003900020EB
:1026700004900D980990032000030A9001AA0121FB
:102680001F48FFF707FC1B48FFF731FD01211C48DD
:10269000FFF7F2FB00BF1A48FFF738FC0028FAD01A
:1026A00000BF1448FFF762FD0028FAD11148FFF778
:1026B00014FD01211248FFF7D1FB00BF0220104991
:1026C000486000BF0B98401CC0B20B900E990B984D
:1026D0008842B3DB10210848FFF7AAFC0548FFF742
:1026E000F7FC00210348FFF747FD0248FFF7FAFC1B
:1026F00000BF94E70038004000040050FFFF0000D6
:1027000000000240FFB58DB005460E461F461699E3
:102710000F984018401E83B2F019401E82B20F98E5
:1027200080B20A90B0B209900A9900F06FFA41485D
:10273000FFF7CEFC0121C9023E48FFF71DFD3D48D1
:10274000FFF7D0FC40213C48FFF772FC10213A48CB
:10275000FFF768FC169878430446002C01D111B0AD
:10276000F0BD36496118481E3449FDF7C1FCC0B2BE
:102770000C9000200A9048E03048844201D90B9028
:1027800000E00B940B98241A019580200590C0005E
:10279000079028480C30009000200490FF20013062
:1027A000069010200290002003900B9808900320C0
:1027B000000309906A4601212148FFF76BFB1D4881
:1027C000FFF795FC01211E48FFF756FB00BF1C4890
:1027D000FFF79CFB0028FAD000BF1648FFF7C6FCA5
:1027E0000028FAD11348FFF778FC01211448FFF7BD
:1027F00035FB00BF02201249486000BF0B98400023
:102800002D180A98401CC0B20A900C990A98884268
:10281000B2DB10210848FFF70BFC0648FFF758FC15
:1028200000210448FFF7A8FC0248FFF75BFC00BF4B
:1028300095E700000038004000040050FFFF000052
:102840000000024070B592B0044601208003E149C7
:10285000C96B0143DF4AD1631146C96B0140019145
:1028600000BF00BFDC48FFF7CFFD05200007FFF7E2
:10287000CBFDD948FFF7C8FDD748FFF7C5FDD648BF
:10288000FFF7C2FDD548FFF7BFFD0120D149403118
:1028900009680143CF4A403211601146096801407E
:1028A000019100BF00BF00BFCA49896B0143C94AFB
:1028B00091631146896B0140019100BF00BF18214F
:1028C0000CA8FDF758FC0CA8FFF7B8FBFF2001305F
:1028D0000C9002200D900E9000200F90022010907E
:1028E000012011900CA9BC48FFF716FB01208002C3
:1028F0000C9002200D900E9000200F9010901190DF
:102900000CA905200007FFF707FB0CA8FFF796FBB3
:1029100010200C9001200D9002200E9000200F90AE
:10292000109011900CA9AC48FFF7F6FA40200C90DB
:102930000CA9A948FFF7F0FA4021A748FFF778FB58
:1029400080200C900CA9A448FFF7E6FA8021A24849
:10295000FFF76EFB80200C900CA9A048FFF7DCFA73
:1029600080219E48FFF75EFB282102A8FDF703FCAB
:1029700002A8FFF708FC032080030290FF20053027
:102980000390002004900220059001200690400250
:1029900007900020089009900A900B9002A9904897
:1029A000FFF7AAFB8E48FFF79DFB80218A48FFF7BF
:1029B00039FB1420FDF7CAFF80218748FFF738FB59
:1029C000112000F0A3F97820FDF7C0FF01220320B9
:1029D000511E844B9B688D07EE0E3F25B540AB43DF
:1029E0008D07EE0E0546B5402B437E4DAB6000BF14
:1029F0007D480470362000F089F97B480078002873
:102A000006D001280CD0022806D0032810D10BE0F4
:102A1000002000F0C5F90BE0C02000F0C1F907E08C
:102A2000702000F0BDF903E0A02000F0B9F900BF6C
:102A300000BF3A2000F06AF9052000F0B1F9B22099
:102A400000F064F90C2000F0ABF90C2000F0A8F9BC
:102A5000002000F0A5F9332000F0A2F9332000F0A7
:102A60009FF9B72000F052F9352000F099F9BB200A
:102A700000F04CF9352000F093F9C02000F046F941
:102A80002C2000F08DF9C22000F040F9012000F068
:102A900087F9C32000F03AF9132000F081F9C4202F
:102AA00000F034F9202000F07BF9C62000F02EF968
:102AB0000A2000F075F9D02000F028F9A42000F0D9
:102AC0006FF9A12000F06CF9D62000F01FF9A120C9
:102AD00000F066F9E02000F019F9F02000F060F94C
:102AE000002000F05DF9042000F05AF9042000F005
:102AF00057F9042000F054F9052000F051F929207D
:102B000000F04EF9332000F04BF93E2000F048F978
:102B1000382000F045F9122000F042F9122000F0B0
:102B20003FF9282000F03CF9302000F039F9E1208D
:102B300000F0ECF8F02000F033F9072000F030F955
:102B40000A2000F02DF90D2000F02AF90B2000F0EA
:102B500027F9072000F024F9282000F021F933207C
:102B600000F01EF93E2000F01BF9362000F018F9A5
:102B7000142000F015F9142000F012F9292000F0BB
:102B80000FF9322000F00CF9212000F0BFF81120DD
:102B900000F0BCF8292000F0B9F8134800780028AC
:102BA00003D011480078022809D1FF204130AC231E
:102BB0000022114600901046FFF708FD08E0AC2007
:102BC000FF2341330022114600901046FFF7FEFC20
:102BD00012B070BD001002400004005000140050FC
:102BE00000380040000001400D00002010B50446F0
:102BF000002C04D080210448FFF71AFA03E080215A
:102C00000148FFF70FFA10BD00140050F8B5074651
:102C10000C4615461E463C480078002819D12A204B
:102C200000F074F83946223188B200F0A1F8294644
:102C3000223188B200F09CF82B2000F067F8204683
:102C400000F096F8304600F093F82C2000F05EF883
:102C500058E02D480078022819D12A2000F056F8B3
:102C60003946223188B200F083F82946223188B2F1
:102C700000F07EF82B2000F049F8204600F078F8AC
:102C8000304600F075F82C2000F040F83AE01E487D
:102C90000078012819D12A2000F038F8384600F0D1
:102CA00067F8284600F064F82B2000F02FF8214642
:102CB000223188B200F05CF83146223188B200F04F
:102CC00057F82C2000F022F81CE00F480078032869
:102CD00018D12A2000F01AF8384600F049F82846A2
:102CE00000F046F82B2000F011F82146223188B27E
:102CF00000F03EF83146223188B200F039F82C203D
:102D000000F004F8F8BD00000D00002010B50446E6
:102D100040210748FFF786F910210548FFF782F99F
:102D2000204600F007F810210148FFF781F910BD97
:102D30000004005010B5044600BF00BF0B48806877
:102D40000221084040080028F7D00848047300BF5B
:102D500000BF0648FFF70AFA0028FAD100BF02E0D8
:102D600000BF411CC8B20428FADB10BD0038004087
:102D700010B5044640210948FFF75AF910210748C9
:102D8000FFF750F92012FFF7D5FFE0B2FFF7D2FFAF
:102D900010210248FFF74CF910BD0000000400505C
:102DA00010B5044640210748FFF742F910210548B5
:102DB000FFF738F92046FFF7BDFF10210148FFF764
:102DC00037F910BD000400507047000008B50348F3
:102DD0008069009000F03AF808BD000000E000E0D3
:102DE00008484068000C0004074989880122520302
:102DF000114389B2084303494860C8030349886006
:102E00007047000000100240000FFF1F00ED00E0BF
:102E100010B500BF0C480069C007C00F0121484031
:102E2000484000280ED000BF0748C068084048400E
:102E30004840002806D000BFC81E0349086100BFF3
:102E4000FEF726FD10BD000000200040024800688B
:102E5000401C0149086070471000002002460B48E2
:102E60000368934206D3981A884201D30120704721
:102E70000020FCE70020C043801AC018401C884294
:102E800001D30120F3E70020F1E70000100000204B
:102E900001480068704700001000002010B50020B5
:102EA0000249086000F004F810BD00001000002086
:102EB00010B50321081F00F0CDF80020C043002802
:102EC00009DB00BF00BFC206D20E01219140064AB5
:102ED000116000BF00BF00BF0448054948610020E1
:102EE00088610720086110BD00E100E03F19010082
:102EF00000E000E010B5FFF7EBFAFDF7E9FCFFF7A3
:102F0000CDFFFFF7F5FA0120FFF750FBFEF7C2FAFD
:102F100010BD2021020C01D010211046020A01D060
:102F200010460839020901D01046091F820801D055
:102F30001046891E420801D0881E7047081A704743
:102F4000F8B582B28BB204140D1410465843002118
:102F500026465E43371436048019794116466E437F
:102F6000371436048019794126466E438919F8BD15
:102F7000F8B582B28BB2040C0D0C104658430021F8
:102F800026465E43370C36048019794116466E4357
:102F9000370C36048019794126466E438919F8BDED
:102FA00030B47446641E2578641CAB4204D3635D60
:102FB0005B00E31830BC18471D46F8E7002809DB22
:102FC000C206D20E01219140034A1160BFF34F8F18
:102FD000BFF36F8F7047000080E100E010B500285C
:102FE00019DB1A4A03231B02D21883089B00D2580C
:102FF0008307DC0EFF23A3409A438B071B0E840735
:10300000E40EA3401A43114B032424021B19840825
:10301000A4001A5118E00E4A03071B0F083B9B0837
:103020009B00D2588307DC0EFF23A3409A438B07F3
:103030001B0E8407E40EA3401A43054B0407240F1C
:10304000083CA408A4001A5110BD000000E100E0F3
:103050001CED00E010B5002819DB1A4A03231B02FF
:10306000D21883089B00D2588307DC0EFF23A340AD
:103070009A438B071B0E8407E40EA3401A43114B9F
:10308000032424021B198408A4001A5118E00E4AD4
:1030900003071B0F083B9B089B00D2588307DC0EDD
:1030A000FF23A3409A438B071B0E8407E40EA34023
:1030B0001A43054B0407240F083CA408A4001A5126
:1030C00010BD000000E100E01CED00E002E008C8D7
:1030D000121F08C1002AFAD170477047002001E092
:1030E00001C1121F002AFBD170470000F0B595B056
:1030F0000446DA48FDF7BAFB0546FDF72DFFD84A2E
:103100001278002A01D0D74A00E0D74A1146621C43
:10311000D0B200F0D1F9D248007800281DD1002C9F
:103120001BD0062C19D8D048FDF7A0FB05460C2073
:103130008C234622102100902846FEF75DF9CB48EB
:10314000FDF794FB05460C20702360221E210090A1
:103150002846FEF751F915B0F0BD2300FFF720FF18
:10316000090639445B92979CB4FDFC00C048FDF70A
:103170007DFB054630205C232A221121C9430090A3
:103180002846FEF739F9BB48FDF770FB05462420B9
:10319000642336225F2100902846FEF72DF9B348BC
:1031A000FDF764FB054607202A2396223221009072
:1031B0002846FDF7E9FEB048FDF758FB054600201C
:1031C0003023FF223232962100902846FDF7DCFEA4
:1031D00041E137220021A948FDF7A4FFB7220021D1
:1031E000A648FDF79FFF36E137220021A448FDF7EE
:1031F00099FFA448FDF73AFB05467020AC23B8229E
:10320000002100902846FEF7F7F8B82200219C48DC
:10321000FDF788FF1FE1302105A8FCF7ACFF9748B8
:1032200005905621684601839B2141830421017743
:10323000012108A80172944903C91491139008222E
:1032400013A90AA80230FCF77DFF012168468177A7
:1032500041778D49083103C9129111901299119843
:10326000099108908948FDF701FB0546A4207C23BD
:103270004A22182100902846FEF7BEF805A8FDF75F
:10328000D9FFE8E00021824800F0A8F9E3E001213D
:10329000804800F0A3F9DEE0302109A8FCF76BFFBD
:1032A0007D48099056216846018598214185042171
:1032B00008A80173481F12906A4813906748149039
:1032C00009A8FDF7B7FFC6E06F49103103C9149193
:1032D0001390724B724A13A910A8FDF7A2FC0028A4
:1032E0002AD07048FDF7C2FA0546294610A8FDF716
:1032F00061FB6048FDF7BAFA054612205A234A22BC
:1033000000210195009010A8FDF74CFC5748FDF7EF
:10331000ADFA0546142354228021009010A8FDF731
:103320005FFB10AD688A00902B8A0E22AA5E0C21EA
:10333000695E1298FEF792F84A48FDF797FA05463B
:103340000220982378220A2100902846FEF754F89C
:103350004448FDF78BFA01E01AE009E00546022037
:103360009823D6220A2100902846FEF745F872E0FD
:103370004E2236214C48FDF7D5FE962212214A48AE
:10338000FDF7D0FEDE225A214748FDF7CBFE62E072
:103390003D49183103C9149113903E2540E0662041
:1033A000401B182802D26620401B00E0182086B27D
:1033B00029B210A8C1814682384B394A13A9FDF7BA
:1033C00030FC002800D12DE03848FDF74FFA0746C1
:1033D000394610A8FDF7EEFA382102A8FCF7CBFE1B
:1033E00010A80290324803904221684601823E2193
:1033F000418200210175481E0C9002A8FDF746FB92
:1034000010A8408A009010A8038A0E22825E0C2128
:10341000415E12980190FEF721F82846183085B2D7
:10342000662DBCDB00BF302107A8FCF7A4FE2148B5
:103430000790562168460184B4214184042108A8DC
:103440000171481F1090094811900448129007A874
:10345000FDF7F0FE00BF00BF00BF7CE61F151000A7
:1034600006000020FFA84A005540FF004AC1FF00A7
:10347000FF6C1B007FD03500FF4FE000DC470008E9
:10348000E847000855413300B4470008473226009A
:10349000F4470008004800080C4800080212000029
:1034A0008E02002035221800185C00087A50250092
:1034B0004C5F0008D85F0008FEB507460D460A219C
:1034C0003846FCF715FE4048445C2846FDF7CEF927
:1034D00002903E48FDF7CAF901901E20AC2300225D
:1034E000114600900198FDF787FFE007C00F002804
:1034F00007D0032012230246072100900298FDF70F
:103500007BFF02202040002807D00820032305224B
:10351000172100900298FDF76FFF0420204000283B
:1035200007D0082003231022172100900298FDF7EE
:1035300063FF08202040002807D003201223172211
:10354000072100900298FDF757FF10202040002827
:1035500007D0082003231022052100900298FDF7D0
:103560004BFF20202040002807D0082003230522FD
:10357000114600900298FDF73FFF402020400028B0
:1035800007D0032012230D22072100900298FDF797
:1035900033FF0F490978002901D00E4900E00E4998
:1035A0000846FDF763F906460820009008480078B1
:1035B000002801D0742000E0242003460B2226219D
:1035C0003046FDF719FFFEBDA24700081F15100089
:1035D000050000207FD035005C483A00F0B597B078
:1035E00005460E4630245CE028680003800D30302C
:1035F000001B182805D228680003800D3030001BFE
:1036000000E0182080B216902A4903C91591149041
:1036100020B210A948821698C882274B274A14A9BD
:1036200011A8FDF7FEFA002801D117B0F0BD18214E
:103630002046FCF75DFDC007C00F002801D02048E0
:1036400000E020480290FDF711F90746394611A81D
:10365000FDF7B0F9382103A8FCF78DFD11A8039000
:1036600004952621684681823021C182002101769D
:10367000481E0D9014480F9010A8067003A8FDF77F
:1036800005FA10A8C08A009010A8838A1222825ED0
:103690001021415E13980290FDF7E0FE204618309D
:1036A00084B228680003800D3030A0429CDC00BF4B
:1036B000BBE70000AC470008021200008E020020A9
:1036C0006A401600356AD000403020001FB5FEF772
:1036D00065FA6846FEF774FB1E21684601800121E9
:1036E00081704B210901818000218171C172002408
:1036F00005E069462046FEF72FFB601CC4B2032C90
:10370000F7D3FEF771FB1FBD10B5FFF7F3FB0020E9
:1037100010BD000070B586B001A90620FEF78CF838
:103720000546002468E06000201801A9085C002814
:1037300014D1600020184018407801280ED10020D4
:103740002F4908700A212F480078401CFCF7D0FC54
:103750002C4801700078FFF7C9FC4BE0600020188E
:1037600001A9085C002814D1600020184018407896
:1037700002280ED1224800780121484020490870D3
:10378000FFF786FB204908601E480078FFF7AEFC73
:1037900030E06000201801A9085C01280FD160000A
:1037A000201840184078012809D1002014490870D9
:1037B0001449087008460078FFF798FC1AE060008A
:1037C000201801A9085C022814D1600020184018B4
:1037D000407802280ED10020FDF748F80646FDF794
:1037E000BBFB0020FDF76EFF5020FDF7AFF8002077
:1037F000FEF7DCFE601CC4B2AC4294DB06B070BDC8
:10380000050000200400002008000020FFB5A9B03A
:1038100005460C462146284600F064FA002801D1EE
:103820002DB0F0BD20A92B98888320A82C99C183A6
:1038300020888105890D20A8018420680003810D5E
:1038400020A84184696828682691259023AA25A983
:1038500027A8FCF77BFE002800D1E1E73698002876
:1038600011D008220CA83699FCF76CFC0AAA0CA906
:1038700023A8FCF76BFE002800D1D1E70B990A982A
:103880002491239000BF20A881892B98081A00B2A8
:10389000229020A8C1892C98081A00B2219020A853
:1038A00080892988401A00B2209020A8C0896988A0
:1038B000401A00B21F902068460F21684901C90FC5
:1038C00000290AD021888905890D7143C81DC117B7
:1038D000490F09184903090C00E000211E912298A4
:1038E00070431D901D984007400F1C9021684901AE
:1038F000C90F00290BD020A9098A71431C9A891885
:10390000C81DC117490F09184903090C00E000211F
:103910001B911D98C0081A9020684001C00F002814
:1039200004D00120B040401EC0B200E00020199039
:10393000EB480069EA4909894843189020688002E9
:10394000800F00287ED102200D9020888005800DF8
:103950000D9948430C9020A8008A0D99484380B2E5
:103960000B9020684002C00F002801D10B9800E0A6
:1039700000200A90DA48406809900998002800D190
:1039800002E00A9909984018089020684001C00F89
:10399000002808D02068C000800F002803D11B99A0
:1039A0000A9840180A900A98002808D0CC48406825
:1039B000002803D018990A98884200D930E70020DF
:1039C000079085E00799219841180C9841430D9A7A
:1039D000229850430818069007991F984018A98804
:1039E00048434000A96841182098400008180590F5
:1039F00020684002C00F002804D0616806980818AB
:103A0000049008E06268069950180B9A0999FDF72E
:103A1000F8FD099804900020039020684001C00F31
:103A2000002819D00799219840181E9948431A99DF
:103A300047182068C000800F012804D1A068C01971
:103A4000039008E04BE0A168C8191B9A0899FDF79C
:103A5000D8FD0898039000BF002731E00D98784307
:103A6000049941180A7868460272497841722068C0
:103A70004001C00F00281CD0384670431C9A8118A2
:103A80003246039800F0A7F901903598002801D03C
:103A9000349802E079000598405A00906846018900
:103AA000199B019A0098FDF704F97A00059988524C
:103AB00004E0684601897A0005988152781C87B233
:103AC00020A8008AB842C9DC0798401C80B2079041
:103AD00020A8418A0798814200DD73E7A0E632986A
:103AE000002800D19CE620688001400F17902188B3
:103AF0008A05920D17995143C81DC117490F09181E
:103B0000C9101691179922984843159015984107A6
:103B1000490F149120A90A8A17994A4314995118F8
:103B2000C81DC117490F09184903090C13911598AD
:103B3000C008129000201190109020684002C00F21
:103B4000002804D16648406811901398109064488A
:103B500040680F900F98002800D102E010990F984C
:103B600040180E9020684001C00F002808D020683F
:103B7000C000800F002803D11B99109840181090A6
:103B80001098002808D056484068002803D018999B
:103B90001098884200D943E600200D9097E00D99D7
:103BA0002198401880B20C9020684002C00F002875
:103BB00008D0626816990C98484311181298081892
:103BC0000B900EE0626816990C98484311181298F1
:103BD0000F183846139A1199FDF713FD11980B90A1
:103BE00000BF0D991F984018A98848434000A96854
:103BF00041182098400008180A9000200990206879
:103C00004001C00F002816D01E990C9848431A99FD
:103C100047182068C000800F012803D1A068C01990
:103C2000099007E0A168C8191B9A0E99FDF7E9FCF5
:103C30000E98099000BF1498089000273FE0179A4B
:103C400008990B9800F0C7F8079007993398C84077
:103C5000C007C00F002804D0079841003298405A8E
:103C600000E03498069020684001C00F00281BD067
:103C7000384670431C9A81183246099800F0ABF818
:103C800005903598002801D0349802E079000A9810
:103C9000405A0490199B059A06990498FDF709F873
:103CA0007A000A99885203E07A000A9906988852A5
:103CB00017990898401880B20890781C87B220A8FD
:103CC000008AB842BBDC0D98401C80B20D9020A841
:103CD000418A0D98814200DD61E700BFA0E5000048
:103CE0001800002070B505460C4600F009FC0028BD
:103CF00004D0284600F0A8FB002801D1002070BDA8
:103D0000002C0ED020888005800D002809D0206866
:103D10000003800D002804D020688002800F032853
:103D200001D10020EBE720684002C00F002806D137
:103D300020684002C00F002801D00020DFE7206883
:103D40004002C00F002803D06068002800D1D6E7E9
:103D500020688002800F00280BD020688001400F6F
:103D6000012804DB20688001400F052801DD0020C8
:103D7000C5E720688002800F012806D12068400135
:103D8000C00F002801D00020B9E720684001C00F13
:103D900000281ED02068400F012803DB2068400F58
:103DA000052801DD0020AAE72068C000800F012857
:103DB00006D02068C000800F002801D000209EE7B8
:103DC0002068C000800F012803D1A068002800D11E
:103DD00095E7012093E7F8B50346002400200EE0A4
:103DE0000D18EE089E5D6F077F0F3E41F607F60F38
:103DF0000096009E8640F6B23443451CE8B29042DD
:103E0000EEDB2046F8BD0000FEB504460D46164622
:103E10001F4621688901480F0949FDF76EF80848D7
:103E20002838008D0022D24305493B46019200917B
:103E3000029032462946204600F004F8FEBD0000FC
:103E400040000020FFB599B005461C462868800157
:103E5000460F21881A98081A00B2189061881B989A
:103E6000081A00B2179018987043169016984007D9
:103E7000400F1590A1887143159A8918C81DC11764
:103E8000490F09184903090C1491A0884004000C3B
:103E90001390D3480069D249098948431290D04809
:103EA000406811901198002801D11DB0F0BD149AFE
:103EB0001199881800F053FA109011991098401A2F
:103EC0000F9012990F98884205D80F991298411AAD
:103ED0001398814200D2E8E710980E90298889054E
:103EE000890D7143C81DC117490F09184903090CF1
:103EF0000D911698C0080C902398401C00287DD185
:103F00000F9A1299881A1399FCF7F2F880B20B9065
:103F10000B98012800DAC8E7E1880B98814201DAA2
:103F2000E0880B90002799E0E088C11B0B98814244
:103F300002DAE088C01B00E00B9880B20A900020F3
:103F4000099078E01798C1190998081880B208906C
:103F500028684002C00F00280FD0686805900D99AE
:103F6000089848430C9940180490049A05988118C1
:103F7000149A1198FCF7E6F80FE0686805900D991F
:103F800008984843059941180C9808180490149A09
:103F900011990498FDF735FB00BFA08809994843A3
:103FA00041000E980818079015980690002005907B
:103FB00039E000200490039022E0039A06998918C2
:103FC00088B20146C217520F5218D310119AD25C10
:103FD000C3175B0F1B18DB10DB00C31A1A41D20793
:103FE000D20F02920190039A0299914089B2049AE9
:103FF000114304910398401C80B200E033E0039029
:104000000398B042D9DB049841002298415A0598A0
:104010004200079881520698801980B20690059850
:10402000401C80B20590A18805988142C1DC0998A6
:10403000401C80B209900A990998884282DB0A984C
:104040000090A3886088C01902B20021615E0E98BA
:10405000FDF713FB0A98381887B200BFE088B84212
:1040600000DD61E7BAE00F9A1299881A1399FCF7FC
:104070003FF880B20B900B98012800DA15E7E18831
:104080000B98814201DAE0880B900027A1E0E088DC
:10409000C11B0B98814202DAE088C01B00E00B983C
:1040A00080B20A90002009907FE01798C119099802
:1040B000081880B2089028684002C00F00280FD06E
:1040C000686805900D99089848430C994018049029
:1040D000049A05988118149A1198FCF733F80FE0A8
:1040E000686805900D9908984843059941180C98FF
:1040F00008180490149A11990498FDF782FA00BFE9
:10410000A0880999484341000E980818079015980F
:1041100006900020059040E000200490039020E0ED
:10412000039A0699891888B20146C217520F52188D
:10413000D310119AD25CC3175B0F1B18DB10DB0086
:10414000C31A1A41D207D20F02920190039A029920
:10415000914089B2049A114304910398401C80B2A3
:1041600003900398B042DBDB04992398C840C00752
:10417000C00F002804D0049841002298405A00E063
:10418000249805994A00079988520698801980B2A8
:1041900006900598401C80B20590A1880598814240
:1041A000BADC0998401C80B209900A9909988842A3
:1041B00000DA7AE70A980090A3886088C01902B2F2
:1041C0000021615E0E98FDF758FA0A98381887B2F8
:1041D00000BFE088B84200DD59E700BF00BF64E6D9
:1041E00018000020FEB504460D4616461F460A4933
:1041F0002046FDF795F908482838008D0022D24363
:1042000005493B46019200910290324629462046DC
:10421000FFF718FEFEBD000040000020FFB589B08A
:1042200005460E461C460220089028888005800D11
:104230000899484307900020205EB04212D1022125
:10424000615E0B9881420DD1A08829888905890D6E
:10425000884207D1E08829680903890D884201D185
:10426000012000E00020069028684002C00F0028CE
:1042700039D068680590069800280CD0286800039B
:10428000800D0090288883059B0D31460B9A059878
:10429000FDF7F3F926E02088801B00B204906188C6
:1042A0000B98081A00B20390002717E00398C01972
:1042B00007994843059942180899049848431018EB
:1042C000029001200090A3886088C01902B20021EA
:1042D000615E0298FDF7D1F9781C87B2E088B84298
:1042E000E4DC00BF39E068680590069800280CD02F
:1042F00028680003800D0090288883059B0D3146B7
:104300000B9A0598FDF787F926E02088801B00B2FC
:10431000049061880B98081A00B20390002717E0F8
:104320000398C019079948430599421808990498B9
:1043300048431018029001200090A3886088C0199B
:1043400002B20021615E0298FDF765F9781C87B220
:10435000E088B842E4DC00BF00BF0DB0F0BD01460C
:1043600002220846431C580840007047002800D12C
:1043700070470021C180002202810179002902D00A
:104380000179022901D1018800E041884181017948
:10439000012902D00179032901D1018800E0418877
:1043A000818100BFE4E7FFB587B0044615461E468D
:1043B000204600F049F8002801D0B54201DD0BB0DD
:1043C000F0BD0027E75F0020205EA1884018401E56
:1043D00006900220205E05900220205EE1884018B1
:1043E000401E049010990598814208DB04991098AA
:1043F000884204DCBE4202DB0698854200DDDEE72F
:10440000BD4200DA3D460698864200DD069E022146
:10441000615E1098401AA188484303900020205EF6
:10442000291A02910020205E301A0190029806E0BD
:104430000899A368039A121852009952401C0199D6
:104440008842F5D900BFBAE710B50446002C0FD05A
:10445000A06800280CD0A068FFF781FFA1688842FF
:1044600006D12046FCF7DAF8002801D0012010BD63
:104470000020FCE7FFB585B00D4616461F4600F04C
:104480003FF8002801D0B54201DD09B0F0BD1B485E
:104490000068841D0020205E04900020205EA1881A
:1044A0004018401E03900220205E02900220205EF1
:1044B000E1884018401E01900298874208DB01986D
:1044C000874205DC0498864202DB0398854200DDC2
:1044D000DBE70498854200DA049D0398864200DDFC
:1044E000039E01200090701B401C83B23AB229B297
:1044F0000598FDF777F800BFC7E700001800002017
:1045000010B507480068002808D005490968881DCB
:10451000FCF784F8002801D0012010BD0020FCE742
:104520001800002000B50246002901D1002000BD7E
:104530001300FEF735FD090607080A0B0C121314C9
:10454000170000BF00BF0020F1E700BF00BF0B460F
:10455000C80FC018401000B2E9E700BF00BF481EF6
:1045600000B2E4E70020E2E700B50246002901D1ED
:10457000002000BD1300FEF713FD09060A12070B09
:1045800013080C14170000BF00BF0020F1E700BFA4
:1045900000BF0B46C80FC018401000B2E9E700BFCB
:1045A00000BF481E00B2E4E70020E2E7F0B591B09A
:1045B00004460D4616461F4668468587C6872088EE
:1045C0008105890D10A8018020680003810D10A8C5
:1045D0004180082239460DA8FBF7B4FD0BAA0DA9AE
:1045E0000FA8FBF7B3FF002801D111B0F0BD16985A
:1045F000002811D0082209A81799FBF7A3FD07AAE4
:1046000009A90BA8FBF7A2FF002800D1EDE7089944
:1046100007980C910B9000BF1898002835D0002007
:1046200009900A9020888105890D684601852068D7
:104630000003810D68464185082207A81999FBF7F8
:1046400081FD05AA07A909A8FBF780FF002800D172
:10465000CBE76846808A401901B268468181C08AEA
:10466000801901B26846C181018B0182418B418270
:1046700001AA03A90BA8FBF769FF002800D1B4E742
:10468000029901980C910B9000BF08220BA91A986F
:10469000FBF758FD0120A8E7FFB589B00446159F38
:1046A000002C04D0002F02D01698002802D1002040
:1046B0000DB0F0BD00200790089020888105890D7D
:1046C0006846018420680003810D6846418400200B
:1046D000069005901298002828D01398002802D040
:1046E0001498002801D10020E2E7002003900490F4
:1046F00020888105890D6846018220680003810DAC
:104700006846418201AA03A81499FBF71FFF0028FD
:1047100000D1CDE7684601890184418941840421A3
:10472000415E06910621415E059100BF07A80AA9D6
:104730000EC9FBF780FF68461C21415E06980D1AE2
:1047400068461E21415E05980E1A0A48854208DB1C
:10475000400C854205DCC043864202DB400C8642A9
:1047600001DD0020A4E728B2388031B2169801801C
:1047700001209DE70080FFFF081C3000081C30006E
:104780000000000404040000080000000800000805
:104790000000000800020406080A0C0001020304DD
:1047A00005063F065B4F666D7D077F6F26000000A4
:1047B000600000002300120066004C0018004A0050
:1047C0007C00A400260048006000180042003E0063
:1047D000280018008E00002000020000ACC001007C
:1047E0000000000000000000ACC021028096000024
:1047F000000000006080018440BC00004004010013
:104800006080214540160100481F01005040910082
:104810004828010000000000F1B433B553BD12B5C3
:1048200053B553BD53BD53B574BD95BD74BD74BD73
:1048300074B594BD74BD74BD74BD94BD94BD94BD78
:1048400095BD74B574B594BD74BD74B574B554B5E7
:1048500054B553B554B533B533B553B532B532B598
:1048600032B532B532B532B553B533B553B574BD83
:1048700053B553B533B553B553B553BD53BDF1A47B
:1048800033ADF2AC32AD53B553B533B533AD33AD13
:1048900033AD12ADD1A40D9432B594BD94BD95BD88
:1048A000B5BDB5C595BDB5BDB6C5D6C5D6C5D6C50C
:1048B000D6C5D6C5D6C5D6C5D6C5D6C5F6C5F6C5E0
:1048C00017C6F6C5D6BDD6C5D6C5D6C5D6BDD6C5BE
:1048D000B6BD95BD95BDB5BDB5BD95BDB4BDB4C5A1
:1048E00094BD95BD95BD95BDB5BDB5BDB5BD95BDD9
:1048F000B5BD95BD53B595BD94BD74B552B54D8C40
:10490000F0A4D0A474B574B574B595B595BD94B53F
:1049100095BD74BD53B5D1A432B595C595BDB5BD92
:10492000B6C5B6C5B6C5B6C5D6C5D6C5D6C5D6C52F
:10493000D6C5D6C5D6C5D6C5D6C5B5C5D6C5F6C5A0
:10494000F7C5F6C5D6C5D6C5D6C5D6C5D6C5D6C54E
:10495000D6BDB6BDB5BDB5BDB5BD95BDB5BDB5BDC5
:1049600095BD94BDB5BDB5BD95BD95BD95BD95BD78
:10497000B5BD11A5A8736E9454B56E94A97B476B11
:1049800006638F9C74BD74B595BD74B574B595BD43
:1049900012A5EB7B6E9411AD32B594C595C5B5C526
:1049A000B6C5B6C5D6C5D6C5D6C5D6C5D6C5F6C54F
:1049B000B6C5B6BDD6C5D5C5B5C5D5C5F6C5F7C549
:1049C000F7C5F6C5D6C5F6C5D6C5D6C5F6C5F6C56E
:1049D000D6BDB6BDB5BDB5BDB5BDB5BDB5BD95BD45
:1049E00095BD95BDB5BDB5BDB5BD95BD95BD95BDD7
:1049F00095BD53B5A97327638A7BAA7B0663A5522D
:104A000004424A6B12ADCF9CF1A474B553B595BD69
:104A10008F94276328634E9C32B5B5C5B5C5B5C51F
:104A2000B5C5B6C5D6C5D6C5D6C5D6C5F6C5D6C5CF
:104A3000B6BDB6BDD6C5D5C5B5C5D6C5D6C5F6C5F0
:104A4000F7C5F6C5D6C5D6C5D6C5D6C5F6C5F6C50D
:104A5000D6C5B5BDB5C5B5BDB5BDB5BDB5BDB5BD95
:104A600095BDB5BDB5BDB5BDB5BD95BD95BD95BD36
:104A700053B56E94C97B27636552E762C6522442E0
:104A80000442E75A286BE65AAF9C75BD74B5F2A490
:104A90008F9408634442C65A32BDD5C5D6C5B5C544
:104AA000B5C5B5C5B5C5B5C5B6BDB5BDB5C5B5C545
:104AB000B5BDB5BDD6C5D6C5B5BDB5BDB6BDD6C5EA
:104AC000D6C5F6C5F6C5D6C5D6C5F6C5F7C5F7C56C
:104AD000D6C5D6C5D6C5B5BDB5BDD6BDD6BDB5BD89
:104AE000B5BDD6BDB5BD95BDB5BDB5BDB5BD95BD55
:104AF00032AD676B844A444A4552654A8752054243
:104B0000654A2663644A497311ADB09C12AD6A735D
:104B1000864A8542233AA55253BDD5C5D5C5D6C5CB
:104B2000D5C5B4C5B5C5D5C5B6C5B5C5D6C5D6C533
:104B3000B5BD95BDD6C5D6C5B6BDD6C5D6BDD7C53E
:104B4000F7C5F6C5F6C5F6C5D6C5F6C5F7C5F7C5AA
:104B5000F7C517C6F6C5D6C5D6C5D6C5D5C5B6BD23
:104B6000D6C5D6C5D6BDB5BDB6BDD6BDB5BD95BD40
:104B7000909CA973286B6652254A296BE86267529C
:104B8000C85AC65A854A4663CA83E55A0663244210
:104B9000E331233A2342855252BDB4C5B5C5B5C5EC
:104BA000D5C5D5C5D5C5D6C5F6C5F7C5F6C5F7C5AE
:104BB000B6BD95BDB5C5D6BDB5BDD6BDD6BDF7C5CF
:104BC00017C6F7C517C6F7C5D6C5F6C5F6C5F6C5E7
:104BD000F7C516CEF6C5F6C5F6C5D6C5D6BDD6C53B
:104BE000F6C5D6C5D5BDD6BDD6C5D5C5B5BD33ADC3
:104BF000AB7B286B286BE762044225420442A85A2B
:104C0000A75AC652E65A8552644A2342233AE331F0
:104C1000E33923424342855253BDB5C5B5C5D5C519
:104C2000D5C5D6CDD6C5D6C517C6F7C5F6C5F7C501
:104C3000D6C5D6C5D6C5D6C5D6C5F6C5F6C5F6C53C
:104C400017C617C6F6C5F7C5F7C5F6C5F6C5F6C546
:104C5000F7C5F6C5F6C5D6C5F6C5D6C5D6C5F6C5DB
:104C6000F6C5F7C5D6C5D6C5F6C5D6C594BDEC8381
:104C700027632763286B254A0442264AC75AA7623E
:104C8000A65AE65A644AE439A331E3392442E331AF
:104C9000C331033A2342654A53BDB5C5D5C5D5C511
:104CA000D5C5D5CDD6C5D6C5D6C5F7CDF6CDF6C5B5
:104CB000D6C5F6CDF7CDF6CDF6C517CE17CE17CEA5
:104CC00017CEF7C5F6C517C617C617C617C617C637
:104CD000F6C5F6C5F6C5F6C5F6C5F7C5F7C5F6C5FA
:104CE000F6C5F6C5F6C517C6F6C5D5C5D6C5D0A452
:104CF000C97BCA7B086385522542854A654A044AB6
:104D00006552854A2442A331C339033A644AE339E0
:104D1000A329E3392342454A73BDD5C5D6C5D6C5B7
:104D2000D6C5F6CDF6CDF6C517CE17CE16CEF6CD36
:104D3000F6CD16CE17CE16CE16CE37CE17CE17CE50
:104D400037CE37CE17CE37CE17CE17CE37CE16CEBC
:104D5000F6C5F6C5F6C5F6C5F7C517C6F6C517C636
:104D600016C6F6C5F6C5F6C5F6C5D5C5D5C552B540
:104D700031B532B5A9732663E552A5520442444ABF
:104D8000C65A2442C339A331A331E339E339E339A5
:104D9000C33124422342654A73BDF6CDF6CDF6CD2C
:104DA000F6CDF6CDD6C5F6C517CE37CE17CE17CE73
:104DB00016CE16CEF6CD17CE37CE37CE17CE17CEAF
:104DC00037CE37CE37CE37CE37CE17CE37CE17CEFB
:104DD00017CE16CE16CE16C617C617C617C617CECE
:104DE00016CE16CEF6C5F6C5F6C5F6C5B5BDF0A409
:104DF0000A84CA7B0763C552C55263312442C55237
:104E0000644AE439A331C33123422342E339C33135
:104E1000A3318329C331444A94C5F6CD16CE17CEAB
:104E200017CE16CEF6CDF6CDF6CD17CE17CE37CEA1
:104E300037CE16CE17CE37CE37D637CE37CE37CE83
:104E400037CE37CE37CE37CE37CE37CE17CE16CE7B
:104E500016CE16CE16CE16CE16C617CE37CE17CE17
:104E600017CE16CEF6C516CE16CEF6C50F948C7B91
:104E7000E86A865265528552244AC439E341E341C7
:104E80006329C3398331A33124422342E339C33137
:104E90008331832983290442B4C5F6CDF6CD16CEDD
:104EA00016CE16CE17CE17CE17CE17CE37CE16CEBD
:104EB00037CE37CE37CE37CE37CE37CE37D637CEC2
:104EC00057D637CE37CE37CE37CE17CE16CE16CEF4
:104ED00017CE16CE16CE16CE16C617CE37CE37CE76
:104EE00017CE37CE37CED5C512AD6B7B675A26525B
:104EF000865AE65A065B85528552E552065B444A5D
:104F0000A331E439C339C339033A0342E339A33146
:104F10006329E3392342654AB5C516CE16CE37D686
:104F200016CE16CE16CE37CE17CE37D637D616CEED
:104F300037CE37CE17CE37CE37CE37CE37D637CE61
:104F400057D657D637CE37CE37CE16CE16CE16CE4C
:104F500017CE16CE16CE16CE16CE16CE17CE16CE2F
:104F600037CE17C612AD6C7BE96A05524652465AD7
:104F7000C65A2663C55A8552A5526663E55AE4416E
:104F8000C339044A044AC3398329A331C33183296D
:104F9000E3394442033A8552B4C537CE17CE16CE14
:104FA00016CE16CE37D637D637D637D637CE17CE1B
:104FB00017CE37CE37CE37CE37CE57D658D658D66F
:104FC00057D637D637CE57D657D637CE36CE36CE3B
:104FD00057D637CE16CE16CE37CE37CE37CEF6C50D
:104FE00033ADCD838762C762C76A865A2552054AA8
:104FF0006652054AC4418552E55A444A83316331B9
:10500000E339044AE341A331033AC331A3316329AD
:1050100083298329A331644A94C516CE16CE16D6A9
:1050200016CE37D637D637D657D637D637CE37CE31
:1050300037CE57D657D637D658D658D657D678D62D
:1050400057D657D657D657D657D636D657D677D6F9
:1050500057D637CE57D637CEB5C5D1A4D1A42E94C6
:105060006752464A665AA66266520542054AE549B3
:10507000E5494552E65AA54A444AC341A33983311A
:105080008331E341C3418329A331A331A331632990
:105090008329A331E339244A94BD16CE36D637D6B8
:1050A00077DE57D637D657D657D657D637D637CED8
:1050B00016CE37D637D657D657D657D657D657D611
:1050C00078D657D657D657D657D657D657D677D637
:1050D00057D6D4C5D1ACCD8B2A7B6762465A655270
:1050E000454A464A66520542A431054AE549254AE1
:1050F000065BE65A454A044A244A644A444AA339AC
:10510000632983298339C3312342A331C3398329D6
:105110006329A331E339244A94BD16D637D698DEE5
:1051200098E636D657DE77DE57D637D636D636D619
:1051300036D637D637D657D657D657D657D657D668
:1051400057D657D657D657D637CE57D6F6CD73B58E
:105150002E940973E872C76A054A25524552665271
:10516000254A8652A65A2542C539054A054A25527E
:10517000054A254AA552444A444A8452244A4329AE
:105180008331C331832924422342C33183314321F4
:1051900043214321E339044273BD16CE16D657DEB0
:1051A00057DE36D636D657D636D636D657D636D634
:1051B00036D636D636D657D657D657D657D657D6EA
:1051C00057D657D637D657D636CEB4C5CC8BE9721C
:1051D000C86AC86AC76A6652264A254A054A2542ED
:1051E000454A6552254AC431E539054A4652255299
:1051F000254AC65A644A244A64526452C441422928
:10520000C339C331E4392442033A24428331632948
:10521000432963298331C44152BD16D615D616D60B
:1052200016D616D636D657DE57D657D657D657D6B1
:1052300036D636D656D657D636D637D657D657D68A
:1052400057D657D657D657D6F1AC8B830873297BE0
:10525000097B8762254A05424652054AE5410542D7
:105260002542454AE539A431E541054A2552054A1A
:10527000E549054AC4494452C55A444A8339633111
:10528000244224428452644AA552644A444AC331A7
:10529000232163298331044AEE9374C556DE16D662
:1052A00077DE57DE57DE77DE77DE77DE56D657DEDF
:1052B00057D636D677DE77DE57D698DE98DE98DE7C
:1052C00057CE16CEB4C5CFACCB93AB8B0C9CAA8B70
:1052D000087B4652054A865A05426652254A0542CF
:1052E0002542254AC431C439054AE5412552054ABB
:1052F0000552655AA562C5626452444A2442C339C4
:105300002442644A8452C55AE55A644AE339A331B7
:10531000432163218331044A4C83AE8BF2AC94BDAC
:10532000D5C5F6CD15CE36D616CE16D677DE77DEB7
:1053300057DE77DE57D636D616D6F1AC90A452BDDE
:10534000D0B42DA4EB9BAA93CA93297B4983A7626F
:1053500086624552E541454A454AA65A665A254A5B
:1053600066526652053A2542254A054A255225527B
:10537000866246734573C45A64528452244AA331E8
:1053800004426452C55AE55A2442C3398331A331D9
:10539000632963298339E4496C8B8C8B4D7B309C6A
:1053A000D2AC13AD13B5D1B4B0ACB1AC53BDB4C530
:1053B000D4CDB1ACCD8BAD83AC83465A465A29834C
:1053C000AB93CB93EB9BC86AE87286622552455239
:1053D000865A65520542E541454A865A865AC76251
:1053E0004652A65AC65A6652865A865A865AE66A5D
:1053F000877B667BE562C55AA55A244AE34103428E
:105400004442644A444A2442E341833142214321D5
:1054100043216331A341E4414B838C838D838D838E
:10542000CE8B2F9470A44F9C2E9C2F9C4F9C90A4AD
:105430000E94E96AE9724A836A8B665A665A097B56
:105440004983297B49836662255A2552054A655A54
:105450004552454A45522542E5412552055245529D
:10546000054A655225522552665A665AA662A662B8
:10547000A6620663266B64526452234A034A0452AE
:10548000034A244AE441C339C3396329A43963294F
:1054900043298331A339C4414F94F2A412A512A524
:1054A00012A5F1A4F1A4F2A4D19CD19CB09CB09C13
:1054B0004F8C2E8C4F944E94EC8BC862875AE86ABE
:1054C0006A838A838A8329730873E86A875A665ACB
:1054D00046524652054A2552054AC441E449E54927
:1054E00005522552E4490552E55105520552E55150
:1054F000E549665AA662845A8452034AE351C3516D
:10550000645A845AA339E4418331054A054A8339F0
:105510006339633943398341D19C32AD12A512A559
:1055200033A512A5F29CF29CD29CD19CB19491948B
:10553000708C4F842F842F84EE7B8B6B4A636B6B54
:10554000AC73AC73AC7B8B738A7B4A732973086B27
:10555000C762A75A66520542E439464A254A254A97
:10556000254A254A254A0542E441E441E441C5393A
:10557000E541E541E5418552E5622452A351A3513D
:1055800044522452E549C4390552465AE549C549B1
:10559000A44184418341C451B19412A512A512A51E
:1055A00012A5129D129D129DF29CD194B194918CE2
:1055B000908C708C708450842F84EE7BCD73AD738F
:1055C000AD73AD73AD6B8C6B6B6B4A6B0963E8624B
:1055D000C862A75A8752464A464A464A464A464AF7
:1055E000264226420542E541E541E541E539E539F6
:1055F000E539E53925424873E76A0773866A8349C6
:10560000E549E54905520552E86A665A675A055266
:105610002652A449C449255AD19C32AD52AD52AD4F
:1056200032A532A512A532A512A5F29CF19CD19CFF
:10563000B194B194908C708C4F842F842E84EE7B27
:10564000ED7BEE7BEE7BEE7BCD73AD736B6B2B63F3
:105650000A63E95AC95AA8528852874A674A464A91
:105660004642264205420542254A264A6652875A44
:10567000C862E86A697B6983A76AE8722652465A5B
:10568000C76A876226526662054AA7620652876227
:10569000A662465A0552465AD09C52AD11A511A594
:1056A00032AD32A532A532A532A532A512A5F19CA4
:1056B000F19CD19CB094B094908C708C708C708C58
:1056C0006F8C4F844F844F840E7CEE7BCD7BAC730C
:1056D0008C73AC738B6B6B6B2A63C85AA85287525E
:1056E000455A0552E459045AC76A297B6A83CB8B11
:1056F000EC930D9C2CA42D9CAB8B6A8BCB930C9CB8
:10570000EB93CB93AA8B8762465A0652087B0873A9
:10571000A762876266626662F1A432ADAF9CCFA4D5
:10572000F0A411A511A511A511A511A511ADD09C2D
:105730000D8C6F94F1A4D19CD19CD094B094B09472
:10574000B094908C6F8C4F8C2E842E840E7C0D7CAC
:10575000ED7BCC7BCC73CC738B6B2A630963E85AEB
:10576000C75AA75A665A665A666266624662666297
:10577000A76AC76AC76A087B087BE872097B298326
:105780006A8BEC9BAB8B87628762AB8B0B94687BDD
:10579000066B087B4783E772F1A411AD8E9C6D9474
:1057A0008E9411ADD0A4F0A411AD11ADF1AC31B512
:1057B0006B7B0E8C11ADD1A411A5EC9B6A93E98291
:1057C000C87AED836F8C6F8C4E844F844F842E8407
:1057D0000E84ED7BCC7BAC738B736B6B4A63095B84
:1057E000C85AA852875287528752A75A865AA65A31
:1057F000A65A865A4552254A044AE441E441E44106
:105800002552455228738662655A27734673466B44
:10581000256B867B677B056BAF9CAE9CEB83887B9F
:105820000C8CAFA48E9CF0A411AD31ADD0A42D9CF6
:105830004A73ED8331AD11A54E9C4582A78AC78A74
:1058400025726A8BE86A2E846F8C6F8C6F8C2E8425
:105850000E7CED7BCC7BAC738B736B6B4A6B2963DB
:10586000C852C852A752874A664A66426642A74A49
:10587000A752A7528652664A664A254AE441E44145
:10588000454A076B865A2442A55AA45AC452256B2E
:105890000463E462A452C45ACC8BCB83CB83086BE1
:1058A000665AE86A6A7BEC8BF0A432AD6F9C265A8C
:1058B000A439AC7B52B54E9C677A05728A93EC9BF7
:1058C000056A4662055A465A2E8C6E944E8C4E8C52
:1058D0002E842E84CD7BCC7BCC7BAC738B736A6B9C
:1058E0000963A85287528752664A464AA7526652AF
:1058F0006652865A6552855AA66245528552654A55
:10590000C762865A644AC55A844AA452C452845211
:10591000A452C452C45264524B7B4A834A83E87AED
:10592000A86A297BE872E972CC8B11A5D0A4475AEA
:10593000E549B09C32ADB0A4097B6B838B832D9479
:10594000097B676ACC8B4A7B0D8C8F9C8F944E8C25
:105950000D8C0D840D840D84CC83AB7BAB83096BE4
:10596000A762665A064A4652E86AE862086BA65A77
:10597000E76A497BC76AA662E772C66A8552A65A79
:105980002552044A844AA452A44AC452634A234A70
:10599000634A844A434204424A83E872C872A86A4E
:1059A000297B6A834A7BE972A86A4E9452AD8B7B4D
:1059B000C86AF1A431ADB09C6B83CC8BEC934D9C49
:1059C000AB8B297BCB8BCB8B6E9C8F9C6E944E9438
:1059D000EC8BEC8BEC8BEC8BCC8B8B83E96AE86AE1
:1059E0000973E872E872E86A2973297329732973C5
:1059F0004A7B0973665AE551A4492552865AC76203
:105A000004524452E452A44A44420342234A434AC1
:105A1000033A4342C331C339C86AC7628B832E94A9
:105A20008B834A83CB8B8A836A83C8728F9CCD8396
:105A30000A73909C11AD8F9C297BC872097BE87A10
:105A4000A772E872CC8BEB8BCB8BAB8BAB8BCB8BFE
:105A5000CB8B497BAA838A836A7B297BC86A67626E
:105A6000E872C86AA76A4A7B4A7B6A7B6A7B8A8338
:105A70004A7B6A838A83086B0552A65A865AC66295
:105A8000044A655AE5628452034203428452644ADE
:105A9000A331E339823183396A836A83E972886288
:105AA0004652465A8B83297BE8724A7B4A7B4B7B62
:105AB0000973AC83ED8BCC8BEC8B097BE972C96AE3
:105AC000E9722A7B6B83097309730873297309735D
:105AD00009730973E86AE972076B076B097BE8725F
