:020000040800F2
:10000000381E0020D5000008F91F0008591200080A
:1000100000000000000000000000000000000000E0
:10002000000000000000000000000000D5280008CB
:100030000000000000000000FB1F0008D928000895
:10004000E7000008E7000008E7000008E7000008F4
:10005000E7000008E7000008E7000008E7000008E4
:10006000E7000008E7000008E700000800000000C3
:10007000E7000008E7000008E7000008E7000008C4
:1000800000000000E7000008000000001D29000833
:1000900000000000E7000008E7000008E700000893
:1000A000E7000008E7000008E7000008E700000894
:1000B000E7000008E7000008E7000008E700000884
:1000C0000348854600F062F8004800479531000873
:1000D000381E00200448804704480047FEE7FEE73A
:1000E000FEE7FEE7FEE7FEE7ED280008C100000896
:1000F00030B50B46014600202022012409E00D46C0
:10010000D5409D4205D31D469540491B2546954047
:1001100040191546521E002DF1DC30BD70B500248B
:100120002546002801DA01244042002901DA012590
:100130004942FFF7DDFFAC4200D04042002C00D026
:10014000494270BD03460B439B0703D009E008C931
:10015000121F08C0042AFAD203E00B780370401C77
:10016000491C521EF9D27047D2B201E00270401C05
:10017000491EFBD270470022F6E710B513460A4627
:1001800004461946FFF7F0FF204610BD064C012536
:10019000064E05E0E36807CC2B430C3C984710342F
:1001A000B442F7D3FFF790FF805C0008A05C000822
:1001B000F0B585B004460B46002A02D1002005B0F8
:1001C000F0BD0020508010809080D080204600F04C
:1001D00057F8002804D0184600F052F8002801D142
:1001E0000020ECE70020205E0021595E884202DDFD
:1001F0000020205E01E00020185E05460020205E01
:10020000A18847180020185E998840180490049827
:10021000874201DA384600E0049803900220205E0D
:100220000221595E884202DD0220205E01E00220A8
:10023000185E06460220205EE188401802900220E7
:10024000185ED9884118019101990298884201DA13
:10025000029800E0019800900398854202DA009825
:10026000864201DB0020AAE728B2108030B250801D
:100270000398401B90800098801BD08001209EE74F
:100280000146002907D08888002804DDC888002896
:1002900001DD012070470020FCE7F8B504460D465B
:1002A00016461F46002C00D1F8BDA188284603F051
:1002B00059FF301A00B22080E188284603F074FF0D
:1002C000381A00B2608000BFEEE7000000B591B0C0
:1002D0000120000301F02CFB0520000701F01AFEAD
:1002E0000520000701F016FE0520000701F012FEB0
:1002F0000520000701F00EFE012001F019FB182176
:100300000BA8FFF738FF0BA801F01EFCFF200130FF
:100310000B9001200C9002200D9000200E900F9069
:1003200010900BA90520000701F07CFBFF21013193
:100330000520000701F004FC012040020B90022080
:100340000C900D9000200E9002200F900A2010902B
:100350000BA9C00601F066FB0120C0020B90022031
:100360000C900D9000200E900F9010900BA905207E
:10037000000701F057FB012000030B9002200C90B6
:100380000D9000200E900F9010900BA905200007F3
:1003900001F048FB282101A8FFF7EDFE00200190A5
:1003A000FF2005300290002003900490059001206A
:1003B0004002069000200790089009900A9001A939
:1003C000064801F01FFC00BF0448006840210843B4
:1003D0000249086000BF11B000BD000000300140BC
:1003E0001CB5002101910091694601A800F04AF86E
:1003F00068460079682806D1684600880349884223
:1004000001D101201CBD0020FCE7000014400000C9
:1004100070B504460E461546002E05D0002D03D0BB
:1004200001200005844200D370BD01200005001B9F
:10043000A84202D201200005051BFF210131052041
:10044000000701F077FB032000F0BEF82102080E40
:1004500000F0BAF82104080E00F0B6F8E0B200F09F
:10046000B3F8002304E0FF2000F0AEF8F0545B1C6A
:10047000AB42F8D3FF2101310520000701F060FBFA
:1004800000BFD1E7F8B504460D46FF210131052034
:10049000000701F04FFB9F2000F096F8FF2000F0CE
:1004A00093F80746002C00D02770FF2000F08CF84E
:1004B00006463602FF2000F087F80643002D00D0E4
:1004C0002E80FF2101310520000701F039FBF8BD26
:1004D00010B50446204600F02AFA10BD10B50446B7
:1004E000002C00D110BD124801F0EAFB104801F0C9
:1004F000E3FB00200E49486200BF00BF0846C4620B
:1005000000BF01F0D9FB00BF094800680121084382
:100510000749086000BF00BF00BF05480069C00769
:10052000C00F0121484048400028F5D000BFD9E75E
:100530000044014000B587B0142102A8FFF71BFE5C
:1005400001204004184909680143174A1160114607
:1005500009680140019100BF00BF00200590039091
:100560004721684601810020C0430490002168466D
:10057000017602A90D4801F0A9FB002801D000BFB7
:10058000FEE70A4801F098FB00BF0848C068012157
:1005900008430649C86000BF084601F091FB0348C4
:1005A00001F08AFB07B000BD40100240004401404A
:1005B00010B5044603E07D20C000FFF78FFF204602
:1005C000641E0028F7D110BD014600BF00BF1148CE
:1005D00080680222104040080028F7D00D480173BF
:1005E00000BF00BF00BF0B488068C007C00F0122DA
:1005F000504050400028F5D000BF00BF054880683B
:1006000080221040C0090028F7D100BF0148C0680F
:10061000C0B270470030014070B504460D46204618
:1006200003F09EFC002800D170BDA688E1884E43EF
:10063000002003E04200A1688D52401CB042F9D373
:1006400000BFF1E7FFB583B01C46039803F088FCB8
:10065000002804D0002C02D02448844201DD07B0D9
:10066000F0BD2746002002903AE000E07F1E002FF8
:1006700014DD3846394602F0D2F905460E46029896
:10068000014602F0CCF92A46354616184D4120465F
:10069000214602F0DCF9301A8D41E7DA00251AE034
:1006A000012D03D10298002800D112E0002D03D1C2
:1006B00002990598401802E002990598401A0646EA
:1006C00000960498C319C21B0C99039803F0F7FB1A
:1006D00000BF681CC5B2022DE2DB0298401C0290EC
:1006E0000298A042C1DB00BFB9E70000FF7F000015
:1006F000F0B589B00446002C05D06168206803F08D
:1007000097F8002801D109B0F0BD07AA08AB204630
:100710001A30217E0393049201910290A07B0A2358
:100720000090E35E0822A25E217B606803F0D4FDA6
:10073000002800D1E7E705AB20461A30217E22468B
:1007400010320493019202910390607B00906E46F8
:100750001C22B25E2021715E2368606803F046FDB2
:10076000002800D1CFE7606800688002800F002871
:1007700018D1206B00F0DBF8064605A93420005D97
:100780000022D2430296019204910390002000902F
:100790006F461C23FB5E2022BA5E6168206802F06F
:1007A0002FFDB0E7656A002D14D1606800688002F3
:1007B000800F012809D1236BE26A61680968890109
:1007C000480F104900F0C4F803E00E49606800F0DB
:1007D0002DFC0C4D206B00F0AAF8064605AA34202B
:1007E000005DA16A029600950492019103906F4604
:1007F0001C23FB5E2022BA5E6168206802F000FDC7
:1008000000BF80E740000020FFB587B006460F46D6
:100810001C46304603F0A4FB002804D0002C02D074
:100820001098002801D10BB0F0BD68468782099965
:10083000C182048369461098488303AA314605A8FB
:10084000FFF7B6FC002800D1EDE7002515E068466B
:100850000E21415E481902900298009068460C21D2
:10086000415E008A0818431E68460C22825E3046AC
:10087000119903F024FB681C85B26846408AA8429F
:10088000E5DC00BFCFE7FFB585B005460C46164650
:10089000002D01D109B0F0BD002028606860A8607B
:1008A000002C06D0002E04D02046FFF7E9FC0028DB
:1008B00001D10020EEE70496049803F0DCFA074625
:1008C000049EB81B039008990398884201D9002020
:1008D000E0E703990898401A0290A088E18848430D
:1008E0000190029841080198814201D20020D1E78D
:1008F000082221462846FFF725FCAF600120C9E702
:1009000010B5002800D110BD01608280C3600024B2
:10091000846000BFF7E7F8B504460D4616461F464B
:100920003B4632462946204603F030FBF8BD30B541
:1009300001460802020E0804030ECCB2F820104053
:100940000002FC251D40ED002843E510284330BD82
:10095000FFB587B0054616461F460898002801D106
:100960000BB0F0BD012D00DA0125052D00DD0525B8
:100970000120A84080B20690002437E00698401E6F
:1009800005900598001B04903902090E049A514302
:100990003202120E624388180599FFF7A9FB0390F3
:1009A0003904090E049A51433204120E6243881826
:1009B0000599FFF79DFB0290F9B2049A5143F2B2F8
:1009C000624388180599FFF793FB01900398000490
:1009D0000299090208430199084300900098FFF723
:1009E000A6FF620008998852601C84B2069884426F
:1009F000C4DB00BFB4E7FEB504460E46002E00D1AE
:100A0000FEBD012C00DA0124052C00DD05240120A7
:100A1000A04087B2781E80B20290002515E029021E
:100A2000481B0299FFF77AFBC0B2019001980004BD
:100A30000199090208430199084300900098FFF7C3
:100A400076FF69007052681C85B2BD42E7DB00BFCB
:100A5000D6E7000038B5054603F072FB002800D148
:100A600038BD07480068841DE0880090A3880222F2
:100A7000A25E0021615E284600F03AFB00BFEFE76E
:100A800018000020FFB587B0109C03F059FB002828
:100A900002D00A98002801D10BB0F0BD002C01DD76
:100AA000012000E000200490049800281CD020467B
:100AB000E10F09184A100A99511806912146E20FD0
:100AC000521853100A9A934205DAE20F1218531083
:100AD0000A9AD21A00E000220592059A06988242EC
:100AE00006D30020049003E00A98069000200590A9
:100AF0004A490698884200D9CEE7069F0598039098
:100B00000020029082E000E07F1E002F14DD3846B6
:100B1000394601F084FF05460E460298014601F071
:100B20007EFF2A46354616184D410698014601F0CB
:100B30008EFF301A8D41E7DA0020019004980028DA
:100B400026D005990298884222DA02E00398401ED6
:100B500003900398002814DD0398014601F05FFF1D
:100B600005460E460298014601F059FF2A463546D1
:100B700016184D410598014601F069FF301A8D4164
:100B8000E4DA0398002801DD012000E00020019054
:100B9000002536E0012D03D10298002800D12EE077
:100BA000002D03D102990998401802E00299099892
:100BB000401A06460498002819D00198002816D03B
:100BC000039887421ADD039B0898C01A421E0898B2
:100BD000C11B3346079803F023FA0898C219039BF8
:100BE000C018411C3346079803F01AFA06E008982B
:100BF000C219C11B3346079803F012FA00BF681CE4
:100C0000C5B2022DC6DB0298401C029006990298DC
:100C1000884200DA77E700BF3EE70000FF7F000070
:100C2000F0B585B004460D46164603F089FA002853
:100C300001D105B0F0BD002C13D020888005800DB7
:100C400000280ED020680003800D002809D02068FD
:100C50008002800F032804D0204603F027FA0028E2
:100C600000D1E6E720684002C00F002805D12068C7
:100C70004002C00F002800D0DBE720684002C00F10
:100C8000002803D06068002800D1D2E720688002E5
:100C9000800F012805D120684001C00F002800D036
:100CA000C7E720688002800F00280AD020688001F2
:100CB000400F012804DB20688001400F052800DD7B
:100CC000B7E71D480068871D684605814681208872
:100CD0008105890D6846818120680003810D684681
:100CE000C1816A46394602A8FFF762FA002800D19E
:100CF0009FE720688002800F002804D0012809D0D7
:100D0000022815D10DE06B4632462946204603F0F5
:100D100011F80DE06B4632462946204602F046FEA9
:100D200006E06B4632462946204602F0E7FF00BF48
:100D300000BF00BF7DE7000018000020F0B589B0BB
:100D4000044603F0FDF9002801D109B0F0BD002CE4
:100D500002D02068002800D1F7E7256828888005A0
:100D6000800D00280ED028680003800D002809D0CF
:100D700028688002800F032804D0284603F096F9E3
:100D8000002800D1E1E728684002C00F002805D103
:100D900028684002C00F002800D0D6E7286840022B
:100DA000C00F002803D06868002800D1CDE728686C
:100DB0008002800F012805D128684001C00F00285B
:100DC00000D0C2E728688002800F00280AD0286877
:100DD0008001400F012804DB28688001400F0528AE
:100DE00000DDB2E707AA08AB20461630217D039349
:100DF000049201910290A07A06230090E35E0422FF
:100E0000A25E217A284603F067FA002800D19CE709
:100E10003C480068861D05AA21461631207D2346E0
:100E20000C33019302AB07C3607A334600906846E7
:100E30001C22825E2021415E284603F0D7F900285B
:100E400000D182E7206800688002800F002804D06B
:100E500001280CD0022852D12FE005AB6F461C228E
:100E6000BA5E2021795E206802F064FF47E0206AC4
:100E7000002809D1E36AA26A216809688901480F3C
:100E800020492831FFF764FDE06AFFF750FD024674
:100E90000490616A206A002801D0206A01E01948A4
:100EA00028306B4607C305AB6F461C22BA5E202173
:100EB000795E206802F098FD21E0206A002804D1C4
:100EC00010492831206800F0B1F8E06AFFF72FFDE3
:100ED00001460490626A206A002801D0206A01E07D
:100EE0000848283001920291009005AB6F461C2201
:100EF000BA5E2021795E206802F076FD00BF00BF57
:100F000000BF22E718000020FFB587B00D46164647
:100F10001C46109F03F014F9002803D0002C01D0C8
:100F2000002F01D10BB0F0BD0F480068801D069066
:100F30006846058246828482C78202AA04A806996E
:100F4000FFF736F9002800D1ECE76846C089009029
:100F5000684683890A22825E0821415E01910798D2
:100F600000F0C6F800BFDDE718000020FFB581B033
:100F700004460F461D460A9E03F0E2F8002805D0FD
:100F8000002C03D0002D01D0002E01D105B0F0BD02
:100F90002B46009639462046039A00F0F4F800BF2D
:100FA000F4E700001CB51B4903C901910090684695
:100FB00000F07EF8FF2000F00BF902F0CDF8FFF70B
:100FC0000FFA154908700020144908701449087078
:100FD00001F08AFF00BF00F0B9FF02F043F81048AB
:100FE00000780028F7D00F490F48006801F0BCFCDA
:100FF0000028F0D001F0D2FC0B490860122107480C
:101000000078401CFFF774F804480170007801F084
:101010006BFFE0E7884A000806000020040000207B
:10102000050000209808000008000020FEB50446D6
:101030000D4603F085F8002808D0002D06D0002CBE
:1010400004D020688002800F032800D1FEBD2068F4
:101050008001410F0120884080B202900298400038
:10106000019021888905890D22689201520F514310
:10107000C81DC117490F0918CE1020680003870D3D
:10108000774320684002C00F002808D06068C0196C
:1010900000902846019A0099FFF754F805E061682E
:1010A000C8192946019A00F032F800BFCEE70000C7
:1010B00010B5044668210C48FFF75DF80E210B4877
:1010C000FFF759F8094808490860086800F06AF80D
:1010D0000549086802F0D6FE002C03D0616820683C
:1010E00000F08EF810BD00001800002080000020E5
:1010F000FFB581B004460D4616460A9F009732465A
:1011000029462046049B00F0E7FF05B0F0BD70B50E
:1011100004460D461646324629462046FFF778F922
:1011200070BDFFB5A3B01D46002627E0002421E0D6
:10113000281B402801D2281B00E0402087B23046FF
:1011400068430019410002917A00239B02995818C4
:1011500003A9FFF75DF9012000902598801902B2DC
:101160002498001901B23B4603A801F051F820462B
:10117000403084B2AC42DBDB701C86B22C988642D5
:10118000D4DB27B0F0BDFFB581B004460D4616464E
:101190000A9F0097324629462046049B01F038F802
:1011A00005B0F0BD10B50446002001F0D1F8FFF7FE
:1011B0008DF8AC202080FF204130608000206071DD
:1011C000207110BD10B50446204601F095FA10BDFF
:1011D00010B5044609480068002800D110BD074832
:1011E00000684079A04200D1F8E7044800684471E3
:1011F0002046FFF7E7FF00BFF0E7000018000020DF
:10120000F8B505460C46002D01D0022C06D200236D
:10121000022219460F48FFF773FBF8BD00950098AE
:1012200002F029FE0646009D771BA74202D8E01B6C
:10123000022806D20023022219460648FFF760FB67
:10124000EBE7E01B4308022231460248FFF758FB58
:1012500000BFE2E71C00002000BFFEE7002005E021
:1012600000214201034B9954411CC8B20328F7DB0B
:1012700070470000901700200120094908700020E5
:101280000BE007494978814200D104E00021420186
:10129000044B995400BF411CC8B20328F1DB7047CE
:1012A000F01700209017002010B504461748007969
:1012B000002801D1012010BD1448C0784100411818
:1012C0001248401D08188078A0701048C07841006E
:1012D00041180E48401D405C20700C48C078410009
:1012E00041180A48401D0818407860700748007986
:1012F000401E06490871C978481C1421FEF70EFFEC
:10130000C8B20249C8700020D5E70000F0170020DD
:1013100000200649087000BF05E000214201044B8F
:101320009954411CC8B20328F7DB7047F01700201E
:1013300090170020024948700221014A117070473D
:10134000F017002070B505460E460E4800790028BB
:1013500000D170BD002000F023FA002409E06100F4
:1013600061188819FFF7A0FF002800D003E0601C77
:10137000C4B2AC42F3DB00BF012000F011FA2046FA
:10138000E7E70000F017002000200349887008718B
:10139000C870087070470000F0170020F8B50026EC
:1013A0000327A6480078002813D0012812D002286D
:1013B00014D1A24846784078401CC7B29F4948786B
:1013C00000F0B2F99D49497849019D4A8918487051
:1013D00004E000BF9A4800F0D3F900BF00BF3546D3
:1013E00028E16801964944182078030001F047FB82
:1013F00005040A1478F709006078002801D101205B
:10140000207014E16078002800D110E102202070E3
:101410000020606020720AE16068143060606078CB
:10142000002814D101202070207A002800D1FEE08D
:10143000207A01280BDD81484078A84207D1227A22
:101440000721284600F0FEF8FFF762FFEFE0606832
:10145000218A884243D903202070207A401C2072C0
:10146000207A012805DD227A0521284600F0EAF8D5
:1014700030E072480078012827D100206F49497870
:1014800049016F4A50546D48407840011146401858
:10149000007A01280BDD6949497849011346C918CA
:1014A0000A7A66494878072100F0CCF80DE06348D5
:1014B0004078400162494018007A012805D15F490F
:1014C00048780022012100F0BDF80022114628468C
:1014D00000F0B8F82846FFF72DFF2F46A7E0A6E05A
:1014E0006068143060606078002839D1A07C0028E2
:1014F0000BD06068A18A884207D9002203212846C0
:1015000000F0A0F8FFF704FF91E0207A012808D14D
:10151000A07D002813D100220121284600F092F876
:101520000DE0227A0621284600F08CF8207AA17E70
:10153000884204DB227A0721284600F083F8A07D48
:1015400000280AD0207AA17E884206DA0020E060D6
:1015500004202070FFF790FE01E0FFF7D9FE66E05F
:10156000A07C00281CD0A08A6168884218D86168D5
:10157000A08A1430814213D2207A012806DD207A15
:10158000401E82B20721284600F05CF800220221AA
:10159000284600F057F800212848403041801CE0E0
:1015A000E07E002819D06168A08A1430814214D3EB
:1015B000224840304088143081B220484030418079
:1015C0004088A18B884208DD00211C4840304180C2
:1015D00000220421284600F035F828E0FFE7E06803
:1015E0001430E0606078002808D000206060284651
:1015F000FFF7A0FE2F460220207018E0E068218B44
:10160000884213D9207A012805DD227A072128464D
:1016100000F018F807E0207A012804D10022012107
:10162000284600F00FF8FFF773FE00E000BF00BF90
:10163000681CC5B2BD4200DAD3E6F8BDF017002041
:101640009017002070B504460D46164615480079DF
:10165000142801DD012070BD124880784100411836
:101660001048401D081845700E4880784100411808
:101670000C48401D4454401F80784200821809489D
:10168000401D1018867007480079401C05490871F4
:101690008978481C1421FEF741FDC8B201498870C1
:1016A0000020D8E7F01700201FB5FFF76DFEFFF709
:1016B000D5FD684600F00AF9002405E06946204699
:1016C00000F0D0F8601CC4B2032CF7DB00F00AF87D
:1016D00000F080F800F020F90020014908701FBDDB
:1016E0000C00002000B587B00E4800F013FC0D4838
:1016F00000F010FC01A800F027FA0820019000205B
:1017000002900120059001A90520000700F08AF948
:101710001020019001A90520000700F083F907B00F
:1017200000BD00000014005010B50446002C04D089
:10173000012C0DD0022C21D115E02021052000071D
:1017400000F0EDF9002801D1012010BD0020FCE7D8
:1017500008210520000700F0E2F9002801D101204E
:10176000F3E70020F1E710210520000700F0D7F98A
:10177000002801D10120E8E70020E6E70020E4E7A7
:1017800070B50546002407E02046FFF7CDFF610154
:1017900049194870601CC4B2032CF5DB70BD000011
:1017A00010B50446002C0ED01320002809DB00BF22
:1017B00000BFC206D20E01219140054A116000BF50
:1017C00000BF00BF02E0132001F068F910BD000067
:1017D00000E100E000B587B0142102A8FEF7CBFCC1
:1017E0000120C0031C49096801431B4A11601146CE
:1017F00009680140019100BF00BF002005900390DF
:10180000164968460181C720049000216846017688
:1018100002A9134800F05AFA00BF0120C043104942
:10182000086100BF00BF0846C068012108430C4999
:10183000C86000BF00BF084600680121084308498E
:10184000086000BF132001F029F90121132001F0E5
:1018500035F907B000BD0000401002401F1C000019
:101860000020004010B5032800DB10BD0A884301AA
:10187000154C1B191A828A7843011B199A748A889D
:1018800043011B199A828A7943011B199A758A7A36
:10189000022A04DA022243011B199A7604E08A7AAA
:1018A0004301094C1B199A760A894301064C1B19FE
:1018B0001A83CA7A43011B19DA768A8943011B19F4
:1018C0009A8300BFD1E70000901700201E210180FD
:1018D00001218170E121C9008180012181710321F1
:1018E0008172FF212D3101810021C172C8218181C6
:1018F0007047000010B50020FFF752FFFFF7AEFC65
:10190000FFF742FD0120FFF74BFF0120014908705E
:1019100010BD00000C00002010B50020FFF740FFB4
:10192000FFF732FD00200149087010BD0C000020B7
:1019300008B5054909680143034A11601146096861
:101940000140009100BF08BD4010024008B50549A4
:1019500009680143034A116011460968014000917A
:1019600000BF08BD4010024010B54A1E044B9A5CEF
:10197000825853085B004A1E014CA25C835010BD84
:10198000585C000810B54A1E044B9A5C825801232B
:101990001A434B1E014CE35CC25010BD585C00085A
:1019A00070B50346D56894682C4315692C43556976
:1019B0002C4395692C43D5692C432046556A28430E
:1019C0004C1E134D2C5D1C59124D2C4004434D1ED2
:1019D0000F4E755D5C5100BF50684C1E35462C5D46
:1019E000E418E06000BF10684C1E2C5DE418A06095
:1019F00000BF106A4C1E2C5DE4186468240C24049B
:101A000004434D1E755DED186C6000BF002070BD75
:101A1000A84900080F80FFFF014608680222104015
:101A200040087047F0B502460B46002661E00124ED
:101A3000B4401968214000295AD0586814680D46EE
:101A40004D436F00ED19AC430D464D4345432C43C8
:101A5000146000BF5868012802D0586802280DD1D0
:101A6000986894680D464D436F00ED19AC430D46E0
:101A70004D4345432C43946000BF00BF1869D468B0
:101A80000D464D436F00ED19AC430D464D434543A4
:101A90002C43D46000BF5868022829D1FF2911D8EF
:101AA0005869146A0D464D434D434D432F017D1B2C
:101AB000AC430D464D434D434D4345432C431462C7
:101AC00000BF15E05F69080A40430C0A60430C0A36
:101AD00060430401241A506AA0430C0A64430D0AAF
:101AE0006C430D0A6C437C432043506200BF00BF2F
:101AF000761C1868F040002899D15868012802D057
:101B00005868022809D1DC6818685568854307467B
:101B100067433D43556000BF00BF0020F0BD024653
:101B200010690840884201D1012070470020FCE77D
:101B3000816270478162704781627047816170473E
:101B400081617047816170470449016003214160F0
:101B500000218160C160016141617047FFFF0000A9
:101B600008B50549496B0143034A51631146496B66
:101B70000140009100BF08BD0010024070B504464E
:101B80007D25ED0029462046FEF7B2FA401E0449A5
:101B90004861002088610520086100BF70BD000019
:101BA00000E000E0024880683821084070470000EB
:101BB0000010024003480068012149060840400E19
:101BC000704700000010024003498968C908C90035
:101BD0000143014A916070470010024001684022B1
:101BE0009143016070474168022291434160704710
:101BF000016840221143016070474168022211438D
:101C00004160704730B50246012300BF1068402490
:101C100020408009002826D14C68086820438C6841
:101C20002043CC6820430C6920434C6920438C69D5
:101C30002043CC6920430C6A204314680D4D2C408E
:101C40002043106050680424A0434C69240C2043B6
:101C500050605C03086AA04204D1486A84B21461EF
:101C600000BF00BF0023D0690124E402A043D0617B
:101C7000184630BD4000FFFF0146886880221040B2
:101C8000C009704702680123DB029A430A430260DD
:101C900070470021016041608160C1600161416164
:101CA0008161C16101620721416270470149086099
:101CB00070470000000000200121C9430161704706
:101CC00001684908490001607047000010B50246EC
:101CD00013682048824203D001208007824205D148
:101CE00018467024A0434C6820430346194882429A
:101CF0000CD001208007824208D01748824205D0CC
:101D00001648824202D01648824206D11846032461
:101D10002402A043CC682043034613608868D06245
:101D200000BF0888906200BF0A48824205D00B4875
:101D3000824202D00A48824203D1087C106300BF6D
:101D400000BF00BF506901242043506100BF002044
:101D500010BD0000002C0140002000400044014064
:101D60000048014008B50120FFF7F0FD0120000701
:101D70004A49C96B0143494AD1631146C96B0140C5
:101D8000009100BF00BF00BF1046006891150843D6
:101D90001146086000BF4249098AC804C00C0122EC
:101DA000D20310433D494968090C090401433B4AE9
:101DB000516000BF00BF00BF3848006801218902A0
:101DC0000840800A0028F6D00020FFF7FDFE00BF83
:101DD000FFF7E8FE0028FBD100BF30480068012172
:101DE000090688432D49086000BF00BFFFF7E2FEE7
:101DF0000028FBD100BF2949C968490849000143AF
:101E0000264AD16000BF04201146C9680C229143C4
:101E10000143224AD16000BF00BF10460068012183
:101E2000090608431146086000BF00BFFFF7C2FE65
:101E30000128FBD102201B49096889088900014358
:101E4000184A116000BF00BF00BF16480068800735
:101E5000800F0228F8D10020104989680F22120251
:101E6000914301430D4A916000BF0220FFF7ACFE91
:101E700000BFFFF797FE1028FBD1002007498968B3
:101E80000722120391430143044A916000BF0648B0
:101E9000FFF774FE0448FFF709FF08BD0010024079
:101EA000000FFF1F0020024000A24A0400BF174895
:101EB000008EC0B2164908601448006BC001C00D06
:101EC00048601248008E0004000E08610F48808EA2
:101ED000C0B288600D48406B4001400DC8600B489F
:101EE000806BC003C00B48610848C06BC003C00BC7
:101EF000886106484030008880B2C861034840309D
:101F000000680001000D086200BF7047000FFF1F4E
:101F10000021024010B5044605200007844203D189
:101F20000120FFF71DFE0CE00648844203D1022089
:101F3000FFF716FE05E00448844202D12020FFF797
:101F40000FFE10BD000400500014005000BF0248F6
:101F50000249086000BF7047AAAA00000030004094
:101F600000BF1948006A012108431749086200BFF1
:101F700000BF00BF1448006A022108404008002842
:101F8000F7D000BF11481249086000BF00BF1148D8
:101F9000086000BF0520486000BF4002886000BFA5
:101FA00000BF00BF0A48C0688007800F002801D129
:101FB000012000E000200028F3D000BF06480449BB
:101FC000086000BF7047000040100240CCCC000009
:101FD0000030004055550000AAAA000010B5FFF7D8
:101FE000C1FEFFF763FFFFF7BBFF00200149087048
:101FF00010BD0000140000207047704700B587B086
:102000002B48FFF787FF2B48FFF784FF05200007C9
:10201000FFF780FF2648FFF77DFF2648FFF77AFF8E
:102020002448FFF777FF01A8FFF78EFD08200190F5
:102030000120029000200390049001A91C48FFF7A2
:10204000F1FC012000F038F801A8FFF77DFD082021
:1020500001900120029000200390012004900020B4
:10206000059001A91348FFF7DDFC01A8FFF76CFDFF
:1020700020200190002002900120059001A9052058
:102080000007FFF7CFFC0420019001A90848FFF7E3
:10209000C9FC0220019001A90648FFF7C3FC0120FA
:1020A000019001A90348FFF7BDFC07B000BD000087
:1020B000000400500014005010B50446012C04D157
:1020C00008210448FFF73EFD03E008210148FFF71F
:1020D00033FD10BD00040050FFB58FB00D4616460D
:1020E0001F4618983018401E83B2E819401E82B26D
:1020F000B1B2A8B20B9000F00FFB4148FFF76EFDA4
:102100000121C9023E48FFF7BDFD3D48FFF770FDC4
:1021100040213C48FFF712FD10213A48FFF708FD27
:10212000189878430446002C01D113B0F0BD0F98E5
:102130000C9035496118481E3349FDF7D9FFC0B2EC
:102140000E9000200B9047E02F48844201D90D905B
:1021500000E00D940D98241A0CA80290002006901F
:1021600001208002089026480C3001900020059044
:10217000FF200130079010200390002004900D985C
:102180000990032000030A9001AA01211F48FFF7CC
:1021900007FC1B48FFF731FD01211C48FFF7F2FB4C
:1021A00000BF1A48FFF738FC0028FAD000BF1448D7
:1021B000FFF762FD0028FAD11148FFF714FD012155
:1021C0001248FFF7D1FB00BF02201049486000BF52
:1021D0000B98401CC0B20B900E990B988842B3DB51
:1021E00010210848FFF7AAFC0548FFF7F7FC00217B
:1021F0000348FFF747FD0248FFF7FAFC00BF94E7EA
:102200000038004000040050FFFF000000000240C2
:10221000FFB58DB005460E461F4616990F9840181B
:10222000401E83B2F019401E82B20F9880B20A900D
:10223000B0B209900A9900F06FFA4148FFF7CEFC5E
:102240000121C9023E48FFF71DFD3D48FFF7D0FCC4
:1022500040213C48FFF772FC10213A48FFF768FC28
:10226000169878430446002C01D111B0F0BD3649D0
:102270006118481E3449FDF73BFFC0B20C900020A6
:102280000A9048E03048844201D90B9000E00B945A
:102290000B98241A019580200590C00007902848CB
:1022A0000C30009000200490FF2001300690102098
:1022B0000290002003900B980890032000030990DF
:1022C0006A4601212148FFF76BFB1D48FFF795FC8B
:1022D00001211E48FFF756FB00BF1C48FFF79CFB7F
:1022E0000028FAD000BF1648FFF7C6FC0028FAD134
:1022F0001348FFF778FC01211448FFF735FB00BFB6
:1023000002201249486000BF0B9840002D180A981F
:10231000401CC0B20A900C990A988842B2DB102186
:102320000848FFF70BFC0648FFF758FC002104485B
:10233000FFF7A8FC0248FFF75BFC00BF95E7000031
:102340000038004000040050FFFF00000000024081
:1023500070B592B0044601208003E149C96B014386
:10236000DF4AD1631146C96B0140019100BF00BF34
:10237000DC48FFF7CFFD05200007FFF7CBFDD9486C
:10238000FFF7C8FDD748FFF7C5FDD648FFF7C2FDE8
:10239000D548FFF7BFFD0120D1494031096801430D
:1023A000CF4A40321160114609680140019100BFD7
:1023B00000BF00BFCA49896B0143C94A91631146F6
:1023C000896B0140019100BF00BF18210CA8FDF7E7
:1023D000D2FE0CA8FFF7B8FBFF2001300C900220C2
:1023E0000D900E9000200F9002201090012011906F
:1023F0000CA9BC48FFF716FB012080020C900220BC
:102400000D900E9000200F90109011900CA90520B7
:102410000007FFF707FB0CA8FFF796FB10200C90B6
:1024200001200D9002200E9000200F90109011902E
:102430000CA9AC48FFF7F6FA40200C900CA9A9486B
:10244000FFF7F0FA4021A748FFF778FB80200C90B7
:102450000CA9A448FFF7E6FA8021A248FFF76EFB1B
:1024600080200C900CA9A048FFF7DCFA80219E4840
:10247000FFF75EFB282102A8FDF77DFE02A8FFF70B
:1024800008FC032080030290FF2005300390002009
:102490000490022005900120069040020790002041
:1024A000089009900A900B9002A99048FFF7AAFBA8
:1024B0008E48FFF79DFB80218A48FFF739FB1420E7
:1024C000FEF776F880218748FFF738FB112000F0EF
:1024D000A3F97820FEF76CF801220320511E844BEB
:1024E0009B688D07EE0E3F25B540AB438D07EE0E82
:1024F0000546B5402B437E4DAB6000BF7D48047060
:10250000362000F089F97B480078002806D00128A1
:102510000CD0022806D0032810D10BE0002000F0D8
:10252000C5F90BE0C02000F0C1F907E0702000F011
:10253000BDF903E0A02000F0B9F900BF00BF3A20C8
:1025400000F06AF9052000F0B1F9B22000F064F95A
:102550000C2000F0ABF90C2000F0A8F9002000F0EE
:10256000A5F9332000F0A2F9332000F09FF9B7203D
:1025700000F052F9352000F099F9BB2000F04CF939
:10258000352000F093F9C02000F046F92C2000F02F
:102590008DF9C22000F040F9012000F087F9C32036
:1025A00000F03AF9132000F081F9C42000F034F96A
:1025B000202000F07BF9C62000F02EF90A2000F060
:1025C00075F9D02000F028F9A42000F06FF9A120BF
:1025D00000F06CF9D62000F01FF9A12000F066F998
:1025E000E02000F019F9F02000F060F9002000F080
:1025F0005DF9042000F05AF9042000F057F9042096
:1026000000F054F9052000F051F9292000F04EF9AE
:10261000332000F04BF93E2000F048F9382000F05C
:1026200045F9122000F042F9122000F03FF928206D
:1026300000F03CF9302000F039F9E12000F0ECF82E
:10264000F02000F033F9072000F030F90A2000F004
:102650002DF90D2000F02AF90B2000F027F90720B2
:1026600000F024F9282000F021F9332000F01EF9B1
:102670003E2000F01BF9362000F018F9142000F07D
:1026800015F9142000F012F9292000F00FF932207A
:1026900000F00CF9212000F0BFF8112000F0BCF888
:1026A000292000F0B9F813480078002803D0114819
:1026B0000078022809D1FF204130AC2300221146C6
:1026C00000901046FFF708FD08E0AC20FF234133DF
:1026D0000022114600901046FFF7FEFC12B070BDBC
:1026E0000010024000040050001400500038004068
:1026F000000001400D00002010B50446002C04D05D
:1027000080210448FFF71AFA03E080210148FFF70F
:102710000FFA10BD00140050F8B507460C461546D8
:102720001E463C480078002819D12A2000F074F891
:102730003946223188B200F0A1F82946223188B208
:1027400000F09CF82B2000F067F8204600F096F887
:10275000304600F093F82C2000F05EF858E02D4849
:102760000078022819D12A2000F056F83946223183
:1027700088B200F083F82946223188B200F07EF852
:102780002B2000F049F8204600F078F8304600F0A1
:1027900075F82C2000F040F83AE01E480078012837
:1027A00019D12A2000F038F8384600F067F828469A
:1027B00000F064F82B2000F02FF82146223188B277
:1027C00000F05CF83146223188B200F057F82C2036
:1027D00000F022F81CE00F480078032818D12A20C6
:1027E00000F01AF8384600F049F8284600F046F89C
:1027F0002B2000F011F82146223188B200F03EF87B
:102800003146223188B200F039F82C2000F004F86B
:10281000F8BD00000D00002010B504464021074817
:10282000FFF786F910210548FFF782F9204600F0EE
:1028300007F810210148FFF781F910BD000400508E
:1028400010B5044600BF00BF0B4880680221084055
:1028500040080028F7D00848047300BF00BF0648AE
:10286000FFF70AFA0028FAD100BF02E000BF411CBE
:10287000C8B20428FADB10BD0038004010B5044689
:1028800040210948FFF75AF910210748FFF750F98E
:102890002012FFF7D5FFE0B2FFF7D2FF1021024868
:1028A000FFF74CF910BD00000004005010B50446BD
:1028B00040210748FFF742F910210548FFF738F992
:1028C0002046FFF7BDFF10210148FFF737F910BD83
:1028D000000400507047000008B50348806900906C
:1028E00000F03AF808BD000000E000E00848406849
:1028F000000C00040749898801225203114389B260
:10290000084303494860C8030349886070470000D2
:1029100000100240000FFF1F00ED00E010B500BFE7
:102920000C480069C007C00F0121484048400028FA
:102930000ED000BF0748C068084048404840002803
:1029400006D000BFC81E0349086100BFFEF726FD80
:1029500010BD00000020004002480068401C0149F2
:10296000086070471000002002460B48036893423D
:1029700006D3981A884201D3012070470020FCE753
:102980000020C043801AC018401C884201D3012097
:10299000F3E70020F1E70000100000200148006884
:1029A000704700001000002010B5002002490860A8
:1029B00000F004F810BD00001000002010B5032145
:1029C000081F00F0B7F80020C043002809DB00BF53
:1029D00000BFC206D20E01219140064A116000BF1D
:1029E00000BF00BF044805494861002088610720F6
:1029F000086110BD00E100E03F19010000E000E0C7
:102A000010B5FFF7EBFAFDF795FDFFF7CDFFFFF7E8
:102A1000F5FA0120FFF750FBFEF7C4FA10BDF8B538
:102A200082B28BB204140D1410465843002126467E
:102A30005E43371436048019794116466E433714C5
:102A400036048019794126466E438919F8BDF8B5D8
:102A500082B28BB2040C0D0C10465843002126465E
:102A60005E43370C36048019794116466E43370CA5
:102A700036048019794126466E438919F8BD30B471
:102A80007446641E2578641CAB4204D3635D5B000E
:102A9000E31830BC18471D46F8E70000002809DBA2
:102AA000C206D20E01219140034A1160BFF34F8F3D
:102AB000BFF36F8F7047000080E100E010B5002881
:102AC00019DB1A4A03231B02D21883089B00D25831
:102AD0008307DC0EFF23A3409A438B071B0E84075A
:102AE000E40EA3401A43114B032424021B1984084B
:102AF000A4001A5118E00E4A03071B0F083B9B085D
:102B00009B00D2588307DC0EFF23A3409A438B0718
:102B10001B0E8407E40EA3401A43054B0407240F41
:102B2000083CA408A4001A5110BD000000E100E018
:102B30001CED00E010B5002819DB1A4A03231B0224
:102B4000D21883089B00D2588307DC0EFF23A340D2
:102B50009A438B071B0E8407E40EA3401A43114BC4
:102B6000032424021B198408A4001A5118E00E4AF9
:102B700003071B0F083B9B089B00D2588307DC0E02
:102B8000FF23A3409A438B071B0E8407E40EA34048
:102B90001A43054B0407240F083CA408A4001A514B
:102BA00010BD000000E100E01CED00E002E008C8FC
:102BB000121F08C1002AFAD170477047002001E0B7
:102BC00001C1121F002AFBD170470000F0B593B07D
:102BD0000646142221490EA8FDF7B4FA002439E074
:102BE0001E49143103C90D910C901C491C3103C9B5
:102BF0000B910A900C206043694648860B990A980D
:102C000006910590012004900D990C980391029073
:102C1000012000960190E00F001940105821484310
:102C20002A3002B22546E00F401940104000201A19
:102C300052214843801D00B2099009486043094968
:102C40004318A0000EA908580890099900F04AF806
:102C5000601CC4B2052CC3DB13B0F0BD104A0008E1
:102C6000040812004030200010B592B01422194917
:102C70000DA8FDF767FA002427E0302101A8FDF731
:102C80007AFAA0000DA908580190E007C00F4E2164
:102C900048430A3069460881E10F09194910482262
:102CA000514330310AB269464A8100200873401E00
:102CB0000A9009486043094940180B9008480C9055
:102CC00001A8FEF73BF8601CC4B2052CD5DB12B09E
:102CD00010BD0000FC49000800152500FFA84A00AF
:102CE0001F151000FFB597B005460E46174628245D
:102CF00065E0FF203D30001B102803D2FF203D304F
:102D0000001B00E0102080B21690304903C91591D5
:102D1000149020B210A948821698C8822C4B2D4AD4
:102D200014A911A8FDF7AFFD002801D11BB0F0BD1B
:102D3000E106C90F002901D0274900E027490846CC
:102D4000FDF7C6FB0146029011A8FDF765FC38218E
:102D500003A8FDF710FA11A803900495684686822F
:102D6000C78200210176481E0D901A980F9010A876
:102D70002099017008A821990171082222A9801DBB
:102D8000FDF7E0F9684621998176249941762699E4
:102D900025980891079003A8FDF7AAFC10A8C08AFF
:102DA000009010A8838A1222825E1021415E029157
:102DB00013980190FEF7DAF82046103084B2FF2015
:102DC0003D30844295DB00BFB0E70000F4490008C5
:102DD000021400008E030020613D1700553D8B005A
:102DE000FFB583B016461C460A210398FDF780F90B
:102DF0003C48475CA006000E0290A0002018C5B217
:102E0000F807C00F002808D000940498001901B2F8
:102E10003246029B0C98FEF777F8022038400028D3
:102E20000DD0301902B2009502990498401800198B
:102E300000B22346014601900C98FEF765F8042085
:102E4000384000280FD070196100401802B2009578
:102E5000029904984018001900B2234601460190D7
:102E60000C98FEF751F80820384000280ED0680072
:102E700080196100401802B200940498001900B251
:102E800001900146029B0C98FEF73EF81020384056
:102E9000002809D070196100401802B2234600953D
:102EA00004990C98FEF730F820203840002807D00D
:102EB000301902B22346009504990C98FEF724F8C5
:102EC0004020384000280AD07019001902B200943E
:102ED0000498001901B2029B0C98FEF715F807B090
:102EE000F0BD0000EA49000870B5054601F03CFD60
:102EF0000446284601F060FA01F036FD041B214625
:102F0000284600F031F870BDFFB58DB004460D467F
:102F10001646169F302101A8FDF72DF90194684649
:102F200005814681109901730776082217A91A3086
:102F3000FDF708F9684687736946199848731B9925
:102F40001A98059104900020C0430A9004480B9001
:102F500004480C9001A8FDF7F1FE11B0F0BD00008F
:102F6000FFA84A001F151000FEB504460D46344860
:102F7000FDF7AEFA06462420AC230022114600904D
:102F80003046FDF7C1FF2F490978002901D02E49AD
:102F900000E02E490846FDF79BFA0646022003464C
:102FA0000522062101960090601C00F0F8F82849DF
:102FB0000978002901D0274900E027490846FDF794
:102FC00087FA06461220009021480078002801D098
:102FD000122000E008200346082228213046FDF791
:102FE00093FF1E48FDF774FA06467D21C900284666
:102FF000FF30F530FDF77CF8074601200423072257
:103000004C2101960090384600F0C9F81448FDF7AD
:103010005FFA0646042014230822912100903046CE
:10302000FDF772FF0E48FDF753FA064604201423FD
:103030001222912100903046FDF766FFFEBD000090
:1030400018100B0006000020FFA84A005540FF00A2
:10305000050000207FD0350055423400FFFFFF00FF
:103060004AB8FF0070B586B001A90620FEF76AF9DC
:103070000546002466E06000201801A9085C0028CD
:1030800014D1600020184018407801280ED100208B
:103090002E49087012212E480078401CFDF728F8B0
:1030A0002B4801700078FFF71FFF49E060002018EF
:1030B00001A9085C002814D160002018401840784D
:1030C00002280ED121480078012148401F4908708C
:1030D000FFF764FC1F4908601D480078FFF704FFF4
:1030E0002EE06000201801A9085C01280DD16000C5
:1030F000201840184078012807D100201349087093
:1031000013490870FFF7F0FE1AE06000201801A9CB
:10311000085C022814D1600020184018407802286A
:103120000ED10020FDF7D4F90646FDF793FC0020F0
:10313000FEF74EF85020FDF73BFA0020FEF7BCFFEB
:10314000601CC4B2AC4296DB06B070BD0500002026
:1031500004000020080000201FB5FEF7A5FA68460D
:10316000FEF7B4FB1E2168460180012181704B21CE
:103170000901818000218171C172002405E0694646
:103180002046FEF76FFB601CC4B2032CF7DBFEF792
:10319000B1FB1FBD10B5FFF733FC002010BDFFB51C
:1031A00083B00F461D460126012403E00A20464352
:1031B000601CC4B2AC42F9DB00241CE03146039829
:1031C000FCF796FF0A210190FCF792FF02910D98FF
:1031D000009039460C9B059A0298FFF701FE0C9867
:1031E000C100081AC01907B20A213046FCF780FF57
:1031F0000646601CC4B2AC42E0DB07B0F0BD000084
:10320000FFB5ABB006460C462146304600F010FB39
:10321000002801D12FB0F0BD20A92D98888420A8C6
:103220002E99C18420888105890D20A801852068F8
:103230000003810D20A8418571683068289127908E
:1032400025AA27A929A8FCF7B3FF002800D1E1E7A8
:103250003898002811D008220EA83899FCF772FF80
:103260000CAA0EA925A8FCF7A3FF002800D1D1E7DE
:103270000D990C982691259000BF20A8818A2D9841
:10328000081A00B2249020A8C18A2E98081A00B209
:10329000239020A8808A3188401A00B2229020A86A
:1032A000C08A7188401A00B221902068450F2168B9
:1032B0004901C90F00290AD021888905890D694370
:1032C000C81DC117490F09184903090C00E0002166
:1032D0002091249868431F901F984007400F1E902C
:1032E00021684901C90F00290BD020A9098B694326
:1032F0001E9A8918C81DC117490F09184903090CDE
:1033000000E000211D911F98C0081C90206840011A
:10331000C00F002804D00120A840401EC0B200E029
:1033200000201B90FB480069FA49098948431A901C
:1033300020688002800F002872D102200F90208820
:103340008005800D0F9948430E9020A8008B0F999F
:10335000484380B20D9020684002C00F002801D180
:103360000D9800E000200C90EA4840680B900B9804
:10337000002800D102E00C990B9840180A902068B0
:103380004001C00F002808D02068C000800F00282E
:1033900003D11D990C9840180C900C98002808D067
:1033A000DC484068002803D01A990C98884200D95C
:1033B00030E7002009909CE00999239841180E9865
:1033C00041430F9A2498504308180890099921986E
:1033D0004018B18848434000B16841182298400025
:1033E0000818079020684002C00F002804D06168C8
:1033F00008980818069008E06268089950180D9A15
:103400000B99FDF784FE0B98069020684001C00FD1
:10341000002806D10D9A06990798FCF793FE64E000
:103420006EE00020059020684001C00F00281BD0EE
:10343000099923984018209948431C9940180490F2
:103440002068C000800F012804D1A16804980818E2
:10345000059008E0A268049950181D9A0A99FDF792
:1034600056FE0A98059000BF0020049037E00F999F
:1034700004984843069941180A78684602734978C7
:10348000417320684001C00F00281ED00498684393
:103490001E9A81182A46059800F072FA0290379811
:1034A000002801D0369803E0049841000798405A5C
:1034B0000190684681891B9B029A0198FDF72BFABF
:1034C00004994A000799885205E068468189049862
:1034D0004200079881520498401C80B2049020A8B2
:1034E000018B04988142C2DC00BF0998401C80B265
:1034F000099020A8418B0998814200DD5CE789E6AC
:103500003498002800D185E620688001470F218883
:103510008905890D7943C81DC117490F0918C910BC
:10352000199124987843189018984107490F1791DA
:1035300020A90A8B7A4317995118C81DC117490F42
:1035400009184903090C16911898C0081590002015
:103550001490139020684002C00F002804D16D48D9
:1035600040681490169813906A4840681290129818
:10357000002800D102E01399129840181190206899
:103580004001C00F002808D02068C000800F00282C
:1035900003D11D991398401813901398002808D050
:1035A0005C484068002803D01A991398884200D9D3
:1035B00030E60020109020684001C00F00284DD058
:1035C000379800284AD01298002847D0139A1299A9
:1035D000881800F050FC1299401A0F900120B84052
:1035E0000E900120A8400D900D990E984843400080
:1035F0000C900C990F9841181A9881422DD80F9968
:1036000012984018109000200B9021E000200A90A2
:1036100017E00A98C2B20B9841003498405A0990BA
:1036200001461B9B369800F0B1FC01460D9A0B98A1
:1036300050430A9A80184200109881520A98401C00
:103640000A900D990A988842E3D30B98401C0B907E
:103650000E990B988842D9D300BF00BF00200F906D
:10366000DEE00F992398401880B20E902068400247
:10367000C00F002808D0626819990E9848431118A5
:10368000159808180D900FE0626819990E98484334
:103690001118159808180990169A14990998FDF7A9
:1036A00036FD14980D9000BF0F9921984018B188ED
:1036B00048434000B16841182298400008180C9017
:1036C00000200B9020684001C00F002819D02099DD
:1036D0000E9848431C99401809902068C000800F3C
:1036E000012804D1A168099808180B9008E0A26885
:1036F000099950181D9A1199FDF709FD11980B9021
:1037000000BF17980A9020684001C00F002828D1F8
:10371000099020E0180000203A460A990D9800F020
:103720002FF9089008993598C840C007C00F0028A5
:1037300004D0089841003498405A00E0369809991E
:103740004A000C9988520A98C01980B20A900998C8
:10375000401C80B2099020A8018B09988142DBDCD3
:103760005AE00120A84008901E9807900020099078
:103770004CE03A460A990D9800F002F906902A4664
:1037800007990B9800F0FCF8059006993598C84009
:10379000C007C00F04900498002804D00698410088
:1037A0003498405A00E036980390109800280FD0C3
:1037B000049800280CD008990698484305994018A9
:1037C00041001098415A099842000C98815212E029
:1037D0003798002801D0369803E0099841000C98EA
:1037E000405A02901B9B059A039900F0CFFB099960
:1037F0004A000C9988520A98C01980B20A9007981A
:10380000401907900998401C80B2099020A8018BAC
:1038100009988142ADDC00BF0F98401C80B20F9028
:1038200020A8418B0F98814200DD1AE700BFF1E428
:1038300070B505460C4600F083FC002804D02846ED
:1038400000F08EFB002801D1002070BD002C13D0A9
:1038500020888005800D00280ED020680003800D90
:10386000002809D020688002800F032804D0204659
:1038700000F01CFC002801D10020E6E7206840028F
:10388000C00F002806D120684002C00F002801D0D8
:103890000020DAE720684002C00F002803D06068EB
:1038A000002800D1D1E720688002800F002800D1D5
:1038B00000BF20688002800F012800D100BF20686F
:1038C0008002800F022800D100BF20688002800F94
:1038D00000280BD020688001400F012804DB2068FD
:1038E0008001400F052801DD0020AEE7206880023E
:1038F000800F002807D020688001400F1E49085C17
:10390000002800D1A1E720688002800F012806D19D
:1039100020684001C00F002801D0002095E72068F2
:103920004001C00F002825D02068400F012803DB8C
:103930002068400F052801DD002086E72068400F41
:103940000E49085C002800D17FE72068C000800F86
:10395000012806D02068C000800F002801D0002078
:1039600073E72068C000800F012803D1A0680028F9
:1039700000D16AE7012068E7B7490008BD4900089F
:10398000F0B50346CC084D076D0F1F5DA818082839
:1039900003D9601C185C0002074338462841012601
:1039A0009640761E3040C0B2F0BD0000FEB5044621
:1039B0000D4616461F4621688901480F0949FDF743
:1039C0001AF808482838008D0022D24305493B46A2
:1039D00001920091029032462946204600F004F8F8
:1039E000FEBD000040000020FFB595B005461C4616
:1039F00028688001470F21881698081A00B2149091
:103A000061881798081A00B213901498784312909E
:103A100012984007400F1190A1887943119A891894
:103A2000C81DC117490F09184903090C1091A08836
:103A30004004000C0F90B0480069AF490989484321
:103A40000E90AD4840680D900D98002801D119B036
:103A5000F0BD109A0D99881800F00DFA0C900D9990
:103A60000C98401A0B900E990B98884205D80B9928
:103A70000E98411A0F98814200D2E8E70C980A90FC
:103A800029888905890D7943C81DC117490F09186F
:103A90004903090C09911298C00808901F98401C0E
:103AA00000287DD10B9A0E99881A0F99FCF720FBFC
:103AB00080B207900798012800DAC8E7E1880798E4
:103AC000814201DAE0880790002677E0E088811BD8
:103AD0000798814202DAE088801B00E0079880B2F4
:103AE00006900020059054E0139881190598081855
:103AF00080B2049028684002C00F00280FD0686888
:103B00000190099904984843089940180090009A38
:103B100001988118109A0D98FCF714FB0FE0686863
:103B20000190099904984843019941180898081888
:103B30000090109A0D990098FDF7E9FA00BFA0884F
:103B40000599484341000A9808180390119802907B
:103B50000020019015E03A4602990D98FFF710FFFA
:103B60000090009841001E98415A01984200039825
:103B700081520298C01980B202900198401C80B214
:103B80000190A18801988142E5DC0598401C80B233
:103B90000590069905988842A6DB0698009000E0FB
:103BA00010E0A3886088801902B20021615E0A9843
:103BB000FDF7E9FA0698301886B200BFE088B042F7
:103BC00084DC97E00B9A0E99881A0F99FCF790FA0B
:103BD00080B207900798012800DA38E7E188079853
:103BE000814201DAE088079000267EE0E088811BB0
:103BF0000798814202DAE088801B00E0079880B2D3
:103C00000690002005905DE013988119059808182A
:103C100080B2049028684002C00F00280FD0686866
:103C20000190099904984843089940180090009A17
:103C300001988118109A0D98FCF784FA0FE06868D3
:103C40000190099904984843019941180898081867
:103C50000090109A0D990098FDF759FA00BFA088BE
:103C60000599484341000A9808180390119802905A
:103C7000002001901EE03A4602990D98FFF780FE61
:103C8000009000991F98C840C007C00F002804D0BA
:103C9000009841001E98405A00E0209801994A007F
:103CA000039988520298C01980B202900198401C72
:103CB00080B20190A18801988142DCDC0598401C0B
:103CC00080B205900699059888429DDB0698009081
:103CD000A3886088801902B20021615E0A98FDF70E
:103CE00052FA0698301886B200BFE088B04200DD74
:103CF0007CE700BF00BFAAE618000020FEB504461E
:103D00000D4616461F460A492046FDF78FF908481A
:103D10002838008D0022D24305493B46019200918C
:103D20000290324629462046FFF75EFEFEBD0000A7
:103D300040000020FFB589B005460E461C46022013
:103D4000089028888005800D089948430790002036
:103D5000205EB04212D10221615E0B9881420DD1EA
:103D6000A08829888905890D884207D1E0882968BB
:103D70000903890D884201D1012000E0002006904E
:103D800028684002C00F002839D06868059006985E
:103D900000280CD028680003800D00902888830537
:103DA0009B0D31460B9A0598FDF7EDF926E020882A
:103DB000801B00B2049061880B98081A00B203902F
:103DC000002717E00398C01907994843059942183E
:103DD0000899049848431018029001200090A38885
:103DE0006088C01902B20021615E0298FDF7CBF92C
:103DF000781C87B2E088B842E4DC00BF39E068682C
:103E00000590069800280CD028680003800D0090CB
:103E1000288883059B0D31460B9A0598FDF781F99B
:103E200026E02088801B00B2049061880B98081A55
:103E300000B20390002717E00398C0190799484380
:103E400005994218089904984843101802900120D7
:103E50000090A3886088C01902B20021615E0298B8
:103E6000FDF75FF9781C87B2E088B842E4DC00BF58
:103E700000BF0DB0F0BD014602220846431C5808A1
:103E800040007047002800D170470021C180002207
:103E900002810179002902D00179022901D101882A
:103EA00000E0418841810179012902D0017903298B
:103EB00001D1018800E04188818100BFE4E7FFB5BE
:103EC00087B0044615461E46204600F049F80028F3
:103ED00001D0B54201DD0BB0F0BD0027E75F002047
:103EE000205EA1884018401E06900220205E0590AA
:103EF0000220205EE1884018401E04901099059829
:103F0000814208DB04991098884204DCBE4202DB3F
:103F10000698854200DDDEE7BD4200DA3D460698A0
:103F2000864200DD069E0221615E1098401AA1883B
:103F3000484303900020205E291A02910020205E51
:103F4000301A0190029806E00899A368039A1218A3
:103F500052009952401C01998842F5D900BFBAE736
:103F600010B50446002C0FD0A06800280CD0A06823
:103F7000FFF781FFA168884206D12046FCF780F94F
:103F8000002801D0012010BD0020FCE7FFB585B05E
:103F90000D4614461E46002E02D1059809B0F0BD0C
:103FA000B44201DB2846F9E7002C01D10598F5E77A
:103FB0002746301B80B204902904CA0E3C46624357
:103FC00005990904CB0E04994B43D0183146FCF7F0
:103FD0008FF880B2039069058A0E624305994905FE
:103FE0008B0E04994B43D0183146FCF781F880B210
:103FF0000290EA06D20E62430599CB06DB0E0499C5
:104000004B43D0183146FCF773F881B20191039805
:10401000C1020298400108430199084380B2BDE7FC
:10402000FFB585B00D4616461F4600F089F80028FA
:1040300001D0B54201DD09B0F0BD1B480068841D08
:104040000020205E04900020205EA1884018401EC1
:1040500003900220205E02900220205EE18840183A
:10406000401E01900298874208DB0198874205DCD8
:104070000498864202DB0398854200DDDBE7049862
:10408000854200DA049D0398864200DD039E0120EC
:104090000090701B401C83B23AB229B20598FDF71C
:1040A00027F800BFC7E700001800002001460029DC
:1040B00000D1704708688002800F002800D100BF3F
:1040C00008688002800F012800D100BF08688002C4
:1040D000800F022800D100BF08688002800F0028EE
:1040E00012D008688001400F00280BD008688001BA
:1040F000400F052806D808688001400F0E4A105C62
:10410000002801D10020D4E708684001C00F002832
:104110000FD00868400F002809D00868400F052814
:1041200005D80868400F054A105C002801D100201E
:10413000BFE70120BDE70000AB490008B149000816
:1041400010B507480068002808D005490968881D8F
:10415000FCF796F8002801D0012010BD0020FCE7F4
:104160001800002000B50246002901D1002000BD42
:104170001300FEF784FC090607080A0B0C1213143F
:10418000170000BF00BF0020F1E700BF00BF0B46D3
:10419000C80FC018401000B2E9E700BF00BF481EBA
:1041A00000B2E4E70020E2E700B50246002901D1B1
:1041B000002000BD1300FEF762FC09060A12070B7F
:1041C00013080C14170000BF00BF0020F1E700BF68
:1041D00000BF0B46C80FC018401000B2E9E700BF8F
:1041E00000BF481E00B2E4E70020E2E7F0B591B05E
:1041F00004460D4616461F4668468587C6872088B2
:104200008105890D10A8018020680003810D10A888
:104210004180082239460DA8FBF794FF0BAA0DA98F
:104220000FA8FBF7C5FF002801D111B0F0BD16980B
:10423000002811D0082209A81799FBF783FF07AAC5
:1042400009A90BA8FBF7B4FF002800D1EDE70899F6
:1042500007980C910B9000BF1898002835D00020CB
:1042600009900A9020888105890D6846018520689B
:104270000003810D68464185082207A81999FBF7BC
:1042800061FF05AA07A909A8FBF792FF002800D142
:10429000CBE76846808A401901B268468181C08AAE
:1042A000801901B26846C181018B0182418B418234
:1042B00001AA03A90BA8FBF77BFF002800D1B4E7F4
:1042C000029901980C910B9000BF08220BA91A9833
:1042D000FBF738FF0120A8E7FFB589B00446159F1A
:1042E000002C04D0002F02D01698002802D1002004
:1042F0000DB0F0BD00200790089020888105890D41
:104300006846018420680003810D684641840020CE
:10431000069005901298002828D01398002802D003
:104320001498002801D10020E2E7002003900490B7
:1043300020888105890D6846018220680003810D6F
:104340006846418201AA03A81499FBF731FF0028AF
:1043500000D1CDE768460189018441894184042167
:10436000415E06910621415E059100BF07A80AA99A
:104370000EC9FBF792FF68461C21415E06980D1A94
:1043800068461E21415E05980E1A0A48854208DBE0
:10439000400C854205DCC043864202DB400C86426D
:1043A00001DD0020A4E728B2388031B216980180E0
:1043B00001209DE70080FFFF01B5B2B0F948FCF78E
:1043C00087F83190FCF746FBF748007800281FD1AA
:1043D000329800281CDD32980F2819DAF348FCF7D0
:1043E00077F831901220942346220C2100903198C6
:1043F000FCF78AFDEE48FCF76BF83190122074232D
:104400006A221C2100903198FCF77EFD33B000BD7C
:1044100032980300FEF733FB110A3D48535E618971
:10442000D8FBF9F8F7F6F5F4F3F2F100E148FCF700
:104430004FF80D9034205F232C221721C9430090A0
:104440000D98FCF761FDDC48FCF742F80D902E203A
:104450005A234622702100900D98FCF755FDD44850
:10446000FCF736F80D9008203023C0221C21009064
:104470000D98FCF707FBD148FCF72AF80D900020B7
:104480002A23FF223232A22100900D98FCF7FAFA7B
:1044900053E236220621CA48FCF7C2FBA822262195
:1044A000C848FCF7BDFB48E234220621C648FCF7A9
:1044B000B7FBA4220621C548FCF7B2FB3DE230223F
:1044C0002621C348FCF7ACFBA0220621C148FCF71B
:1044D000A7FB32E2FEF7C8FB2FE2BF48FBF7F8FF6D
:1044E0000D90D22088233E22122100900D98FCF7D7
:1044F0000BFDBA4903C931913090B849083103C95D
:104500002F912E902F992E980591049001200390C1
:10451000319930980291019001200423A222562162
:104520000090A748FEF7F0FC07E200200D9047E05E
:1045300003210D98FBF7F2FD44204143123108B2EC
:10454000089003210D98FBF7E9FD5A2148434030BC
:1045500000B207909548FBF7BBFF0690052000903E
:104560000798801E00B205900898801E00B20523AF
:1045700004900146059A0698FCF7C6FC97491C3141
:1045800003C90C910B90002009900A900A99099890
:1045900005910490002003900C990B9802910190D2
:1045A00001208F4900900D98085C034606908D48C5
:1045B000079A0899FEF7A8FC0D98401CC0B20D9010
:1045C0000D980928B4DBB8E100202C902D902A909A
:1045D0002B902B992A9806910590002004902D99F4
:1045E0002C9803910290002000907F4B4C222E21AA
:1045F00001907E48FEF776FB9FE151E108E1C0E0C3
:10460000A0E05DE058E053E034E01AE0FFE700206E
:104610002890299026902790279926980691059012
:1046200000200490299928980391029000200121EC
:104630006D4B4C22009101902E216C48FEF752FBED
:104640007BE10020249025902290239023992298AA
:1046500006910590002004902599249803910290DA
:1046600000200090624B4C222E2101906148FEF701
:1046700039FB62E15949243103C9219120905749FE
:104680002C3103C91F911E901F991E980691059009
:10469000012004902199209803910290012000901C
:1046A000514B36222E2101905348FEF71BFB44E16B
:1046B0000020FEF78BFA40E10120FEF787FA3CE18B
:1046C0004649343103C90D910C904C4B4C4A0CA90E
:1046D00009A8FCF7D8F8002833D04A48FBF7F8FEC1
:1046E0000146089009A8FBF797FF3348FBF7F0FE57
:1046F000322108905C231A4600910190042109A8F8
:10470000FCF782F82A48FBF7E3FE08901E238E226E
:104710008721009009A8FBF795FF6846C08E00909E
:104720006846808E089068463221415E079169464E
:104730003020085E06900B98059006A90EC9FCF77C
:1047400015FCFAE025493C3103C91D911C90234911
:10475000443103C91B911A901B991A980691059030
:10476000012004901D991C980391029001200021C2
:104770000C4B5A220091019006211348FEF7B2FA21
:10478000DBE0362208212048FCF74AFA3622602175
:104790001D48FCF745FA7A2242211C48FCF740FAF2
:1047A000CBE000001F151000060000205540FF0060
:1047B0004AB8FF00FE6B24007FD03500FF5CE400A8
:1047C000904A0008C04A00089C4A0008A84A00080D
:1047D000B44A0008F04A00084C362700344A000862
:1047E000444A0008FC4A000840302000CC4A000837
:1047F0005C402E00D84A0008E44A00080214000079
:104800008E0300204D3626009455000808580008F5
:1048100000201890199016901790179916980691E5
:104820000590002004901999189803910290002097
:104830000121434B34220091019046214148FEF76B
:1048400051FA002014901590129013901399129819
:1048500005910490002003901599149802910190FD
:1048600000200346D222122100903748FEF74CFB6D
:104870000020109011900E900F900F990E980591B6
:10488000049000200390119910980291019000204B
:104890000346D222702100902C48FEF735FB4CE0F5
:1048A0002B4903C90791069000200B900C900D90A6
:1048B0000B98800A800214300B9026490B98084010
:1048C0000521090340180B90032109050B98884323
:1048D00040180B903C2214210BA8FCF7A1F91E48AC
:1048E000FBF7F6FD05901220842348221421009046
:1048F0000598FCF709FB1948FBF7EAFD05900A202B
:104900000346C722D243114600900598FCF7FCFAF3
:104910000A23134A06A908A8FBF7B5FF00280BD104
:104920001048FBF7D5FD0590122084237C2214212A
:1049300000900598FCF7E8FA00BF00BF00BF65E5EE
:10494000604228009C5A0008EC5A00084C5C0008A1
:10495000804A0008FF03F0FF7FD03500FFA84A001F
:104960008F0300204AB8FF0070B500BFFEF716F8AD
:1049700004460C488669FEF711F80546AC42F5D1AD
:10498000084A5269511C074A5269921B7D23DB0079
:104990005A431046FBF7ACFB7D21C9006143401828
:1049A00070BD000000E000E0081C300001010101C2
:1049B00001000101010101000101010101000101EA
:1049C00001010100081C3000000000040404000084
:1049D00008000000080000080000000800020406AB
:1049E000080A0C000102030405063F065B4F666DD2
:1049F0007D077F6F06000000A0000000FC4A000851
:104A0000084B0008144B0008204B00082C4B0008F2
:104A1000384B0008444B0008504B00085C4B000822
:104A2000684B000800000000500046000600280007
:104A3000A000140118000C00700046001E00520077
:104A40007000A00000030601040702050800000032
:104A5000000000001F00110005000800460076005D
:104A600014003C008400E6001C00500074005E004E
:104A700014000C006E003E0020006A006C00640010
:104A800014007800500028008E0000200003000071
:104A9000A06801000000000000000000A0682102E2
:104AA0008070000000000000A068A101C08C000020
:104AB000000000006080A102E8A1000000000000EA
:104AC00060800100A8B800000000000050C0018410
:104AD000A8000100A846010050C021452858010047
:104AE000F0600100502022A6B0690100107F010093
:104AF000A0682102A099010000000000216490003C
:104B0000E0B50100000000002164100160B6010062
:104B1000000000002164900144B701000000000083
:104B2000216410028CB80100000000002164900292
:104B300038BA01000000000050C0212648BC010026
:104B4000E8CD010050C0214648D20100E8E3010051
:104B500050C02166A8EC010048FE010050C021862B
:104B6000680B0200081D020050C021A6882E02001A
:104B7000284002008308830883088308079B858AEE
:104B80002472A3610139C128C128023963518351BC
:104B90008359A359A4598351635163498451845162
:104BA00023410339E230C228C228E228E330243905
:104BB0002439243924390331E328C220A220611882
:104BC000E328C649074AC741863904298308830870
:104BD00083088308830883088308830867B347B37F
:104BE00026B3C59A82598259C3690372648AA59A09
:104BF000849AC271E369247AE469E461A459224188
:104C000002416449C6598549434124394441233905
:104C10000331E330C228A220A220A220A22024290E
:104C2000E749E749A6412431042904298308830878
:104C300083088308830883088308830887C3A7C37E
:104C4000A8C326B36392849AE5B2E5AA87C38AFC17
:104C500008FCA3B2438AC59A6582257AE471425161
:104C6000013943492762A972276264492341E2302E
:104C7000C228A220A220E3286439E7514862E88ACA
:104C8000065A44394439C641A641074A8308830875
:104C9000830883088308830883088308E8D309D43A
:104CA00009D42AD4C8D346C346C346C367C38AF4CB
:104CB000C7EB66CB46C305BBC4A2A49A8592E37139
:104CC00042516349C5590A83CE934341A130E23032
:104CD000E3302339A549075A896AC78A27ABE7A277
:104CE0000662686AEE9391A40F94909C83088308EF
:104CF000830883088308830883088308C7D3C7D33E
:104D000008DCE8DB4AE48BEC6AEC8AF48BECECFC24
:104D100049ECC8DB49F4E8F386E345C305AB658A93
:104D2000E469266A276A2B8334B58D8B2B832B8B02
:104D3000A872EA822B8BEDAB48AB69ABEDA30B7B82
:104D40004C7BAD83509C509C0F94CB6283088308AE
:104D500083088308830883088308830869ECEBF4DD
:104D60002CFDCBFCEBFC0CFD0CFDAAFC49F408F47B
:104D700029F429ECEDFC0EFDCCFCA7EBA3AA027AEA
:104D8000C36983598872B2B4D7C575C5B1B42FACA5
:104D900070AC90BCCBB30CC48AA3AD93EE9B2B83B9
:104DA000896A6862CA6A4C7BCA6A48528308830867
:104DB0008308830883088308830883082BFD8CFD00
:104DC0000BFD89F449F4E7EB86E3A6EB29F4ABFC91
:104DD0006AFC4AF4EDFCB1FD2EFD08FC83AA826159
:104DE000635163514C8B13B555BD91AC0A8B4B93FA
:104DF000EDA36A9B8BA36FB4EDAB4A9B6B9BC982FF
:104E00006872A972A96A0B73EB72AA62830883089D
:104E1000830883088308830883088308A35905ABA4
:104E2000E5BA66DBA7DBC5AA439205CB6AFCEDFCBD
:104E30002AEC86E329F4EDFC08FC29FCA5A2056A0E
:104E40004B93EE9B91ACB2B491B4EEA3ACA3B1B4CE
:104E50002DBC8AB3EBC36DCCAABBCBBBCBB3ECB33D
:104E6000EDAB6C8B2B7B0B7B6962084A8308830854
:104E700083088308830883088308830800000000F0
:104E800081204249A361C469448A46D349FCC8EBE6
:104E900026CB84A287DBC9EBE6B2A692E88A6B93A5
:104EA0002FA471A4719CD2B4B1B40DAC2DB46EBC5E
:104EB0000BBC2BD48CECCEEC10EDD0DC11DDF0D49F
:104EC000EDA30A830A7BCA722752A641830883088E
:104ED0008308830883088308830883082008200840
:104EE00000000000000081182241A69A4AF409F44B
:104EF00006BB46722A938C9B2FA4709CB2AC509434
:104F0000EE930EA4B1BCF1CC8FC46EC44DC4EBBB08
:104F1000EACBCDFC91FD50FD92FD92FDD4FDEFDC7E
:104F20006B932A8BEA7A6862C649E3208308830878
:104F300083088308830883088308830820002000EF
:104F4000200840082008000000000000C22863512B
:104F5000C130C1204431A541475A2B73309490B4DD
:104F60008ED410F5AEDC28A3667A266A667A28AB62
:104F70000AEC6BFC2AEC4BF44BEC2BE4AAC3E98A59
:104F800088722762075AE649A641C320830883082E
:104F900083088308830883088308830820000000AF
:104FA0002000200820082008200820080000000019
:104FB00020002008200820082008200881186349C4
:104FC0006782E892E469E238812881206118A1288B
:104FD000024142598361047AE471C461855185417B
:104FE00065396531A641074A695A4429830883080F
:104FF000830883088308830883088308000000006F
:105000002000200020082008200820082008400850
:1050100040084008200820084008400820080000F8
:1050200000000000200040106010411040104008B7
:105030002008401040104010611061106110611094
:10504000611061088210E3202429A21083088308DC
:1050500083088308830883088308830800002000EE
:105060002000000020082008200020082008200838
:105070004008400820082008200820084008400870
:105080004008400840082008200820082008200880
:105090002008200840084008400840084008200830
:1050A0002008000020002000200020008308830842
:1050B000830883088308830883088308000020008E
:1050C0002000000000002000200020002000200020
:1050D0000000000020000000000000000000200090
:1050E0000000000020080000000000000000000098
:1050F00000000000000000000000000000000000B0
:105100002008200020000000200000008308830801
:10511000830883088308830883088308000020002D
:10512000000020004008200000002000200040086F
:10513000811861186010A120C128E228E22863418B
:1051400044412331C220243144392431C220033167
:10515000433963496351634963494449644144396C
:105160008218000061102429811020008308830820
:1051700083088308830883088308830800000000ED
:105180000000000081188359C461E469A120E23065
:105190008592C6A26351458A48BBE79AC88A2762AE
:1051A000686AC97AE328075ACA72896A8541276200
:1051B000A882E89AE8AAE8A2E89AC892A882687247
:1051C00044312000C3202852A2180000830883081D
:1051D000830883088308830883088308000000008D
:1051E000200000004008E469658AE469C128A12024
:1051F000658AC6A2E230E47128B3878A677264398F
:10520000644168728110653948620752C220644166
:10521000477AA792C7A2C89AE89AC892887A075A8A
:10522000C220000061104429C218000083088308CE
:10523000830883088308830883088308000000002C
:105240002000000000002241C46143498118401041
:10525000C469047240084349A69A2672065AC220BD
:10526000C220065A81102431285AE651A218E32898
:10527000266A878AC79AC79AA792A78AA882644192
:10528000410820002000E320C21820008308830882
:1052900083088308830883088308830800000000CC
:1052A000000000000000C228C4690239400820083C
:1052B0002341A4610000C2284582E5698449410870
:1052C000611023314108E320C649653981108218F5
:1052D000A55105724682267A2672066AE661233156
:1052E0004108000041080321611000008308830881
:1052F000830883088308830883088308000000006C
:1053000000000000000081184349023140080000FD
:10531000C120E22800008118E469E56923312008F2
:105320006110811841088110A64103292008410815
:105330004441A461C469C561C561E561C5590331D2
:1053400061100000200061106108000083088308DC
:1053500083088308830883088308830800002000EB
:105360004008411040084008811840082000000013
:1053700060088110200020088459056A0329200054
:105380004108032961108110C64985396110200840
:105390002339A459C5698459434943416441E328E9
:1053A0002000000000002000200000008308830887
:1053B00083088308830883088308830861104008F2
:1053C0006008A118811020002000000000000000EB
:1053D0002000400820000000A120E569A220000074
:1053E00040086110200861088539653961100000A6
:1053F0000331E56105720672E5618451E3302000F6
:105400002000000020002000000000008308830826
:10541000830883088308830883088308200020000A
:1054200040084008400840084008200020002000B4
:1054300020002000200000002000E2308118200819
:1054400020002008200041080429A218200020087C
:10545000A21844416449644984496441C22000005F
:1054600000002000000020002000000083088308C6
:1054700083088308830883088308830800000000EA
:10548000000020002008400860084008400860082C
:10549000601020084008400860104008400881184B
:1054A00020000000000000006108611020002000C2
:1054B0004108C228C228E230A22061104008200022
:1054C0000000000020082008000000008308830876
:1054D000830883088308830883088308000000008A
:1054E0000000000020002000200060084008400864
:1054F000400840082008200040084008A118C228A1
:105500008118400840082000000000000000000052
:1055100020008118A118A118200020000000000020
:10552000000000002008200000000000830883081D
:10553000830883088308830883088308611861103F
:105540006110200820000000000020002000200042
:10555000200040088110A120811861106110A12055
:10556000E22823392331A120A120811840082000FE
:1055700000000000811881186010601020080000F1
:1055800000000000200020000000000083088308C5
:1055900083088308306C4008744B0008000000004A
:1055A000010020099224490000008020000024000E
:1055B000002049922449000000802000902400002F
:1055C0002449922449120000802001902400922452
:1055D00049922401120400822449902448922449CB
:1055E00092240992240992244992244992244992AE
:1055F00024529224499224499224499224009228C8
:10560000929224499224499224499224011249A257
:10561000922449822449922492A224092249934443
:105620002189922492244992244949244D924E4939
:1056300092244992A46DDB344992B64D890252A45A
:10564000A46DDBB691DCB66DDB464E5B10523CB30D
:105650008D24499224D99624C94EBF1049A1C491E2
:105660002449B224D9B66CC95252C24B49B68D24D2
:1056700049B264C9966CCB7201F23380B86D24498B
:10568000B2643992AD3B7652102580C86D2C37B28A
:105690002DC7B62D3996FC800040C66D2C2592751D
:1056A000C9B6E4BA75E224498A448E75B792B5B991
:1056B000B16DBD55DAC82900A09275C976B63BB266
:1056C000ADBB7523270000A0BAB5C99276DBDAAD71
:1056D000496EA402606F80D9B6DB96B55BD676C9F9
:1056E0004E1300E83F81B9765B9776DBAD6E5B4F7A
:1056F0000A10F1FF05B5B65993AEC9B6B6DD4A4AF0
:1057000022E9FF85B477CBD1A5D9DAADED2AD2480D
:1057100091FF058D37BDD56FDDBAF6FD45B47F939A
:105720009A80942D5B9735EBFA776D89F67F52015D
:10573000809064C9B6B578D7B6DBE8FF7F520180A8
:10574000D57557DBA5FA777EA7F0FF6F520110DF02
:10575000F557BA955CB7EF14F5FF6F7201A0DA76D2
:1057600037FA5EFFD66D15D1FF6F5301A0B62E3903
:10577000BB9DEFBFF522D1FE7F4B0AC2D7EEC8BA60
:10578000D3FBB7AE36FEFF7D4292C4B6ED58BFEBF9
:10579000EBF6DE38FAB74D01D2B491A3EBDFE3FAB2
:1057A000FB6F29DAB74D0591A4B5ABDDFA9CF6DBAA
:1057B000A5BBFEB64D49D2ECB2ACEFFE656DBBADFC
:1057C0006DBBB55BB71B6D8EB5FFFFE56FDBB66DCF
:1057D00077B46DDBB7EDB6B5EBFFEBEDBAADCB72E1
:1057E000B46DFFFF6FB6B6EDFFB5DB92AC5B6EB488
:1057F0006DFBF67FB7FEFFFF9AE617D672BDCA8C27
:10580000698C2774C673266B28A0E009A055000890
:105810000000000000000000000000000000000088
:10582000003800000000000000140000000000002C
:10583000001700000000001400D600000000005413
:10584000B095000000000058A95500000000006C51
:1058500095690200000000A069790100000000B015
:10586000BE950D00000000F0AA5B0900000000FCDE
:105870006E5A0D000000C0BF5A5901000000F0FF31
:105880005A550D000000FCFC5B95060000003FF03F
:10589000BC95060000003FF0BCA63A00000030F0C6
:1058A000FF962A0000003FC0AFA9370000003CC0AF
:1058B000BEFE060000003CC0FA6A050000003CF095
:1058C0005B6909000000FFF0AF5609000000FFF01F
:1058D000AB55010000F0FCF0AB5502000000F0FFFA
:1058E00083A5030000F0FCFFAA6E020000F0F0FFA9
:1058F00096AF020000FCF0EFBFAC020000F0FCEF3E
:105900006F90020000F0BFAA9B5F020000F0BFAAE8
:10591000BB5C020000C0ABAABE5C0300000FBFEA84
:10592000BA5C030000C0FF2FA85B00000000FC2B46
:10593000E82E00000000C03AEC0F0000000000005C
:10594000E007000000000000C00B000000000000A5
:1059500000000000A641F3AC919C485200000000FA
:105960000000000000000000001400000000000023
:10597000003C000000000000003D00000000003C72
:10598000007E0000000000FCD0BF0000000000FC12
:10599000FFFF0000000000F4FFFF0200000000F025
:1059A000FFFF0300000000F0FFFF0700000000F011
:1059B000FFFF0B00000000FEFFFF07000000C0FF1C
:1059C000FFFF03000000F0FFFFFF07000000FCFFE7
:1059D000FFFF0F000000FEFFFFFF0F000040FFFF72
:1059E000FFFF1F0000C0FFFFFFFF1F0000D0FFFFF1
:1059F000FFFF1F0000F0FFFFFFFF0F0000F4FFFF9D
:105A0000FFFF0F0000F8FFFFFFFF0B0000FCFFFF90
:105A1000FFFF070000FEFFFFFFFF030000FFFFFF87
:105A2000FFFF020040FFFFFFFFFF010040FFFFFFFD
:105A3000FFFF020040FFFFFFFFFF020040FFFFFFEC
:105A4000FFF8020040FFFFFFFFF0020000FFFFFF32
:105A5000FFFB020000FFFFFFFFFF020000FFFFFF50
:105A6000FFFF010040FFFFFFFFFF000000FFFFBF3F
:105A7000FDFF000000F8FF3FF82700000000941E23
:105A8000F407000000000000F00F0000000000001C
:105A9000800A0000000000000000000020A0604D0F
:105AA000145800085C59000800000000F0FFFF07D0
:105AB000F8FFFF0FFEFFFF3F7EFC1F3F7EF80F3F0A
:105AC0007EF80F3FFEFFFF3FFEFFFF3FFEFFFF3F61
:105AD000FEFDBF3FFEF99F3FFEE3C33FFE1FF83FC1
